:020000041008E2
:1000000000000828DD020910150E0910B9080910B2
:10001000190E09101D0E0910210E09100000000014
:100020000000000000000000000000006D09091041
:10003000250E091000000000290E09102D0E0910D0
:10004000D7FD0810FDFD081023FE081049FE08101A
:100050006FFE081095FE0810BBFE0810E1FE0810A8
:10006000310E0910350E0910390E09103D0E091018
:10007000410E0910450E0910490E09104D0E0910C8
:1000800080B5002002F0B2FE03F0CAFB322003F07C
:100090003DFE02F06DFE01BD80B5DFF8D018087896
:1000A000002804D00320DFF8C828107012E0DFF821
:1000B000400B0078002804D00220DFF8B42810702C
:1000C00008E0DFF83C090078002803D00120DFF8C1
:1000D000A0281070DFF898080078012806D0C0F03A
:1000E0002E82032800F0DA802ED328E2DFF81009F0
:1000F000007801280AD026D303280DD009D305287B
:1001000010D00CD3072817D00FD31CE000F018FA3A
:1001100019E000F047FA16E000F076FA13E000F07C
:10012000A5FA10E000F0D4FA0DE0DFF8D82800219D
:10013000002003F0D9F806E0DFF8CC2800210020E9
:1001400003F0D2F8FFE7FAE1DFF8B40800780128FD
:1001500009D0C0F0A28003284BD02ED3052800F090
:10016000958071D399E0DFF8880A007801280CD0D7
:1001700022D303280FD00BD3052812D00ED3072883
:1001800015D011D3082815D016E000F0D3FA13E0EB
:1001900000F01AFB10E000F05DFB0DE000F0A0FBAA
:1001A0000AE000F0E7FB07E000F030FC04E000F0BC
:1001B00073FC01E000F0B4FC6FE0DFF8340A007873
:1001C000012807D014D303280AD006D305280DD060
:1001D00009D30DE000F0E7FD0AE000F05DFE07E066
:1001E00000F0C7FE04E000F033FF01E000F0ACFFD8
:1001F00053E0DFF8FC09007801280CD023D3032852
:100200000FD00BD3052812D00ED3072815D011D349
:10021000082815D017E001F029FA14E001F076FA69
:1002200011E001F0C1FA0EE001F010FB0BE001F06B
:1002300057FB08E001F09CFB05E001F0DFFB02E06A
:1002400001F022FCFFE728E0DFF8A409007801288C
:1002500009D01AD303280CD008D305280FD00BD30C
:1002600006280FD011E002F06DFA0EE002F0AAFAB3
:100270000BE002F0DFFA08E002F00EFB05E002F00E
:1002800043FB02E002F074FBFFE706E0DFF86009E1
:100290000078012801D102F027FC50E1DFF8600767
:1002A000007801280AD0C0F04A81032800F0C480F9
:1002B000C0F09780042800F0F88040E1DFF83009B2
:1002C000007801280DD0C0F08B80032829D018D3E6
:1002D000052846D035D3072863D052D3082870D0DC
:1002E0007EE00878012802D0022803D008E000F060
:1002F0005BFC05E0DFF8FC280021002002F0F4FFA1
:100300006EE00878012802D0022803D008E000F04F
:1003100057FC05E0DFF8E0280021002002F0E4FFB0
:100320005EE00878012802D0022803D008E000F03F
:1003300053FC05E0DFF8C4280021002002F0D4FFC0
:100340004EE00878012802D0022803D008E000F02F
:1003500057FC05E0DFF844290021002002F0C4FF2B
:100360003EE00878012802D0022803D008E000F01F
:100370009FFC05E0DFF828290021002002F0B4FFEF
:100380002EE00878012802D0022803D008E000F00F
:10039000DDFC05E0DFF80C290021002002F0A4FFBD
:1003A0001EE00878012802D0022803D008E000F0FF
:1003B000E2FC05E0DFF8F0280021002002F094FFC5
:1003C0000EE00878012802D0022803D008E000F0EF
:1003D000DEFC05E0DFF8D4280021002002F084FFD5
:1003E000ADE0DFF80C080078012807D023D30328FC
:1003F00010D009D3052819D012D31CE008780128A1
:1004000001D100F00EFF16E00878012801D100F0BC
:1004100075FF10E00878012801D100F0DCFF0AE048
:100420000878012801D101F043F804E00878012898
:1004300001D101F0A9F882E0DFF8B40700780128C3
:100440000CD031D3032812D00ED3052818D014D3E2
:1004500007281ED01AD3082821D025E008780128C3
:1004600001D101F0E1FC1FE001F071FC1CE0087813
:10047000012801D101F026FC16E001F0AFFB13E0EA
:100480000878012801D101F044FB0DE001F09AFD4C
:100490000AE00878012801D101F02EFD04E0087877
:1004A000012801D101F002FE49E0DFF8440700789D
:1004B000012809D043D303281AD00FD305282BD005
:1004C00020D3062832D03AE00878012802D002284A
:1004D00003D002E002F07EFAFFE730E0087801285E
:1004E00002D0022803D002E002F07CFAFFE726E007
:1004F0000878012802D0022803D002E002F09EFA18
:10050000FFE71CE00878012802D0022803D002E0AF
:1005100002F095FAFFE712E00878012802D00228DD
:1005200003D002E002F0B5FAFFE708E008780128FE
:1005300002D0022803D002E002F0ACFAFFE701BDCE
:1005400080B54FF47A70DFF840190A68096891FBAA
:10055000F0F100FB1120B0F5FA7F06DBDFF82C2963
:100560000021002002F0C0FE05E0DFF82429002170
:10057000002002F0B9FE92A21421002002F0B4FE85
:1005800090A22821002002F0AFFEDFF808293C21CC
:10059000002002F0A9FEDFF8B42A5021002002F06A
:1005A000A3FE01BD80B5DFF8E4280021002002F0A1
:1005B0009BFE4FF47A70DFF8D0180A68096891FB47
:1005C000F0F100FB1120B0F5FA7F05DB7CA21421CD
:1005D000002002F089FE05E0DFF8B4281421002095
:1005E00002F082FE77A22821002002F07DFEDFF8D3
:1005F000A4283C21002002F077FEDFF8502A502189
:10060000002002F071FE01BD80B5DFF880280021D6
:10061000002002F069FE6AA21421002002F064FEAC
:100620004FF47A70DFF860180A68096891FBF0F1FE
:1006300000FB1120B0F5FA7F05DB62A22821002023
:1006400002F052FE05E0DFF848282821002002F0E1
:100650004BFEDFF840283C21002002F045FEDFF889
:10066000EC295021002002F03FFE01BD80B5DFF8EB
:100670001C280021002002F037FE51A21421002086
:1006800002F032FE4FA22821002002F02DFE4FF48E
:100690007A70DFF8F4170A68096891FBF0F100FB43
:1006A0001120B0F5FA7F06DBDFF8E8273C210020B7
:1006B00002F01AFE05E0DFF8D8273C21002002F006
:1006C00013FEDFF888295021002002F00DFE01BD45
:1006D00080B5DFF8B8270021002002F005FE38A21F
:1006E0001421002002F000FE36A22821002002F092
:1006F000FBFDDFF8A0273C21002002F0F5FD4FF4C0
:100700007A70DFF884170A68096891FBF0F100FB42
:100710001120B0F5FA7F06DBDFF8302950210020E8
:1007200002F0E2FD05E0DFF868275021002002F02A
:10073000DBFD01BD80B54FF47A70DFF84C170A6815
:10074000096891FBF0F100FB1120B0F5FA7F06DBA0
:10075000DFF8D8290021002002F0C6FD05E0DFF80F
:1007600030270021002002F0BFFDDFF8C42914214A
:10077000002002F0B9FDDFF8BC292821002002F09A
:10078000B3FDDFF8B4293C21002002F0ADFDDFF815
:10079000AC295021002002F0A7FDDFF8A429642134
:1007A000002002F0A1FDDFF89C296E21002002F05C
:1007B0009BFDDFF8CC2D7821002002F095FD01BDD6
:1007C000504944004750530080B5DFF860290021AC
:1007D000002002F089FD4FF47A70DFF8AC160A6849
:1007E000096891FBF0F100FB1120B0F5FA7F06DB00
:1007F000DFF83C291421002002F076FD05E0DFF847
:1008000090261421002002F06FFDDFF8282928210E
:10081000002002F069FDDFF820293C21002002F0D1
:1008200063FDDFF818295021002002F05DFDDFF89C
:1008300010296421002002F057FDDFF808296E21FD
:10084000002002F051FDDFF8382D7821002002F061
:100850004BFD01BD80B5DFF8D4280021002002F057
:1008600043FDDFF8CC281421002002F03DFD4FF4B9
:100870007A70DFF814160A68096891FBF0F100FB42
:100880001120B0F5FA7F06DBDFF8A8282821002028
:1008900002F02AFD05E0DFF8F8252821002002F00B
:1008A00023FDDFF894283C21002002F01DFDDFF835
:1008B0008C285021002002F017FDDFF884286421E5
:1008C000002002F011FDDFF87C286E21002002F0EC
:1008D0000BFDDFF8AC2C7821002002F005FD01BDF6
:1008E00080B5DFF848280021002002F0FDFCDFF889
:1008F00040281421002002F0F7FCDFF838282821D6
:10090000002002F0F1FC4FF47A70DFF87C150A68E1
:10091000096891FBF0F100FB1120B0F5FA7F06DBCE
:10092000DFF814283C21002002F0DEFC05E0DFF8AF
:1009300060253C21002002F0D7FCDFF80028502180
:10094000002002F0D1FCDFF8F8276421002002F03B
:10095000CBFCDFF8F0276E21002002F0C5FCDFF8A9
:10096000202C7821002002F0BFFC01BD5794022802
:100970005D08022880B5DFF8B4270021002002F0CE
:10098000B3FCDFF8AC271421002002F0ADFCDFF847
:10099000A4272821002002F0A7FCDFF89C273C2197
:1009A000002002F0A1FC4FF47A70DFF8DC140A6832
:1009B000096891FBF0F100FB1120B0F5FA7F06DB2E
:1009C000DFF878275021002002F08EFC05E0DFF8E8
:1009D000C0245021002002F087FCDFF86427642146
:1009E000002002F081FCDFF85C276E21002002F07D
:1009F0007BFCDFF88C2B7821002002F075FC01BD18
:100A00005C080228080D0910100D091080B5DFF8E8
:100A10001C270021002002F067FCDFF814271421B6
:100A2000002002F061FCDFF80C272821002002F0F2
:100A30005BFCDFF804273C21002002F055FCDFF8C6
:100A4000FC265021002002F04FFC4FF47A70DFF8B2
:100A500038140A68096891FBF0F100FB1120B0F529
:100A6000FA7F06DBDFF8D8266421002002F03CFC88
:100A700005E0DFF81C246421002002F035FCDFF8DB
:100A8000C4266E21002002F02FFCDFF8F42A782122
:100A9000002002F029FC01BD80B5DFF8902600217E
:100AA000002002F021FCDFF888261421002002F04B
:100AB0001BFCDFF880262821002002F015FCDFF85F
:100AC00078263C21002002F00FFCDFF87026502130
:100AD000002002F009FCDFF868266421002002F003
:100AE00003FC4FF47A70E8490A68096891FBF0F159
:100AF00000FB1120B0F5FA7F06DBDFF848266E21F7
:100B0000002002F0F1FB04E0E14A6E21002002F037
:100B1000EBFBDFF86C2A7821002002F0E5FB01BD39
:100B200080B5DFF808260021002002F0DDFBDFF8A9
:100B300000261421002002F0D7FBDFF8F825282139
:100B4000002002F0D1FBDFF8F0253C21002002F06C
:100B5000CBFBDFF8E8255021002002F0C5FBDFF8D1
:100B6000E0256421002002F0BFFBDFF8D8256E21CC
:100B7000002002F0B9FB4FF47A70C3490A68096893
:100B800091FBF0F100FB1120B0F5FA7F06DBDFF8F6
:100B9000F0297821002002F0A7FB04E0BC4A78216C
:100BA000002002F0A1FB01BD80B5DFF8D8290021AB
:100BB000002002F099FB0020DFF83C1B087001BD0B
:100BC00080B5DFF8902A0021002002F08DFB012083
:100BD000DFF8241B087001BD80B5DFF87C2A0021F6
:100BE000002002F081FB0220DFF80C1B087001BD21
:100BF00056940228400B09104C0B0910580B091091
:100C000080B5DFF8582A0021002002F06DFBDFF8E4
:100C1000502A0821002002F067FB02230322DFF89C
:100C2000440A90ED060AB7EEC00A0821282002F017
:100C30008DFC93A21021002002F056FB0223022219
:100C4000DFF8240A90ED000AB7EEC00A10210C204C
:100C500002F07CFC8BA21021322002F045FB022323
:100C60000222DFF8980A90ED000AB7EEC00A1021C0
:100C70003E2002F06BFCDFF8882A1821002002F0E9
:100C800033FB0223DFF87C0A02781821282002F0C7
:100C9000EFFB0320DFF8601A087001BD640B091038
:100CA000700B09107C0B0910880B0910940B0910AC
:100CB00080B5DFF8542A0021002002F015FB042043
:100CC000DFF8341A0870DFF898290821002002F0B4
:100CD0000BFB02230322DFF88C0990ED060AB7EE26
:100CE000C00A0821282002F031FC65A21021002052
:100CF00002F0FAFA02230222DFF86C0990ED000AF2
:100D0000B7EEC00A10210C2002F020FC5DA21021D9
:100D1000322002F0E9FA02230222DFF8E00990ED26
:100D2000000AB7EEC00A10213E2002F00FFCDFF8E7
:100D3000D0291821002002F0D7FA0223DFF8C409D5
:100D400002781821282002F093FB01BD80B5DFF85E
:100D5000482A0021002002F0C7FA0323DFF83C0AEA
:100D6000B0F900200821002002F013FB0520DFF875
:100D70008819087001BD80B5DFF8242A0021002001
:100D800002F0B2FA0620DFF87019087001BD80B5D4
:100D9000DFF8102A0021002002F0A6FA0720DFF871
:100DA0005819087001BD10B54FF47A7036490A68B9
:100DB000096891FBF0F100FB1120B0F5FA7F12DB1E
:100DC000DFF8702A0021002002F08EFA02230122AF
:100DD000DFF8640A90ED000AB7EEC00A0021502047
:100DE00002F0B4FB05E0DFF8542A0021002002F0F5
:100DF0007BFADFF84C2A1421002002F075FA032355
:100E0000DFF8400A90ED000ABCEEC00A10EE102A8E
:100E10001421412002F02CFBDFF82C4A032301228D
:100E200094ED000AB7EEC00A2821412002F08EFBA3
:100E30000423012294ED010AB7EEC00A3C214120AF
:100E400002F084FB0323012294ED020AB7EEC00AEC
:100E50005021412002F07AFBDFF87C2A2821002073
:100E600002F042FADFF8742A3C21002002F03CFA3A
:100E7000DFF8642D5021002002F036FA10BD00008A
:100E8000583A0000593A0000AC930228A00B091010
:100E9000400A0910AC0B091010B502230122DFF83B
:100EA000980990ED000AB7EEC00A0021502002F028
:100EB0004DFBDFF894490323012294ED000AB7EEBD
:100EC000C00A2821412002F041FB0423012294EDB5
:100ED000010AB7EEC00A3C21412002F037FB032390
:100EE000012294ED020AB7EEC00A5021412002F01F
:100EF0002DFBDFF840290021002002F0F5F94FF426
:100F00007A70DFF8681A0A68096891FBF0F100FB53
:100F10001120B0F5FA7F13DBDFF82429142100201B
:100F200002F0E2F90323DFF81C0990ED000ABCEEA1
:100F3000C00A10EE102A1421412002F099FA05E0AF
:100F4000DFF8F8281421002002F0CEF9DFF8882914
:100F50002821002002F0C8F9DFF880293C21002078
:100F600002F0C2F9DFF8702C5021002002F0BCF929
:100F700010BD10B502230122DFF8BC0890ED000A75
:100F8000B7EEC00A0021502002F0E0FA0323DFF898
:100F9000B40890ED000ABCEEC00A10EE102A14212D
:100FA000412002F065FADFF8A0480423012294ED05
:100FB000010AB7EEC00A3C21412002F0C7FA032320
:100FC000012294ED020AB7EEC00A5021412002F03E
:100FD000BDFADFF860280021002002F085F9DFF873
:100FE00060281421002002F07FF94FF47A70DFF8B6
:100FF0007C190A68096891FBF0F100FB1120B0F53B
:10100000FA7F10DB0323012294ED000AB7EEC00A39
:101010002821412002F09AFADFF8BC28282100207C
:1010200002F062F905E0DFF814282821002002F020
:101030005BF9DFF8A8283C21002002F055F9DFF821
:10104000982B5021002002F04FF910BD180D091007
:1010500010B502230122DFF8E00790ED000AB7EE99
:10106000C00A0021502002F071FA0323DFF8D407F0
:1010700090ED000ABCEEC00A10EE102A14214120A7
:1010800002F0F6F9DFF8C0470323012294ED000ACD
:10109000B7EEC00A2821412002F058FA03230122AA
:1010A00094ED020AB7EEC00A5021412002F04EFA38
:1010B000DFF880270021002002F016F9DFF88027F2
:1010C0001421002002F010F9DFF80C28282100205C
:1010D00002F00AF94FF47A70DFF890180A6809688C
:1010E00091FBF0F100FB1120B0F5FA7F10DB042337
:1010F000012294ED010AB7EEC00A3C21412002F022
:1011000025FADFF8D8273C21002002F0EDF805E0B1
:10111000DFF828273C21002002F0E6F8DFF8B82AA3
:101120005021002002F0E0F810BD0000B80B0910BB
:10113000500A0910600A0910700A0910C40B09103E
:10114000800A0910D00B091010B502230122DFF824
:10115000E80690ED000AB7EEC00A0021502002F028
:10116000F5F90323DFF8DC0690ED000ABCEEC00AB7
:1011700010EE102A1421412002F07AF9DFF8C84657
:101180000323012294ED000AB7EEC00A2821412072
:1011900002F0DCF90423012294ED010AB7EEC00A43
:1011A0003C21412002F0D2F9DFF8882600210020FE
:1011B00002F09AF8DFF888261421002002F094F853
:1011C000DFF814272821002002F08EF8DFF80C2722
:1011D0003C21002002F088F84FF47A70DFF88C1779
:1011E0000A68096891FBF0F100FB1120B0F5FA7F65
:1011F00010DB0323012294ED020AB7EEC00A50214E
:10120000412002F0A3F9DFF8D0295021002002F09C
:101210006BF805E0DFF824265021002002F064F886
:1012200010BD10B54FF47A70DFF840170A680968EE
:1012300091FBF0F100FB1120B0F5FA7F12DBDFF833
:10124000F4250021002002F04FF802230122DFF8EC
:10125000E80590ED000AB7EEC00A0021502002F028
:1012600075F905E0DFF8582A0021502002F03CF81B
:10127000DFF8CC251421002002F036F80323DFF834
:10128000C40590ED000ABCEEC00A10EE102A14212D
:10129000412002F0EDF8DFF8B0450323012294ED80
:1012A000000AB7EEC00A2821412002F04FF90423BA
:1012B000012294ED010AB7EEC00A3C21412002F060
:1012C00045F90323012294ED020AB7EEC00A50212A
:1012D000412002F03BF9DFF800262821002002F02F
:1012E00003F8DFF8F8253C21002001F0FDFFDFF8CE
:1012F000E8285021002001F0F7FF10BD10B50223AF
:101300000122DFF8340590ED000AB7EEC00A002193
:10131000502002F01BF9DFF830450323012294ED41
:10132000000AB7EEC00A2821412002F00FF9042379
:10133000012294ED010AB7EEC00A3C21412002F0DF
:1013400005F90323012294ED020AB7EEC00A5021E9
:10135000412002F0FBF8DFF8DC240021002001F03E
:10136000C3FF4FF47A70DFF804160A68096891FB2E
:10137000F0F100FB1120B0F5FA7F13DBDFF8C02499
:101380001421002001F0B0FF0323DFF8B80490ED32
:10139000000ABCEEC00A10EE102A1421412002F00F
:1013A00067F805E0DFF87C2A1421412001F09CFF5A
:1013B000DFF824252821002001F096FFDFF81C2506
:1013C0003C21002001F090FFDFF80C285021002084
:1013D00001F08AFF10BD10B502230122DFF8580486
:1013E00090ED000AB7EEC00A0021502002F0AEF8DE
:1013F0000323DFF8500490ED000ABCEEC00A10EEA3
:10140000102A1421412002F033F8DFF83C44042371
:10141000012294ED010AB7EEC00A3C21412002F0FE
:1014200095F80323012294ED020AB7EEC00A502179
:10143000412002F08BF8DFF8FC230021002001F0AE
:1014400053FFDFF8FC231421002001F04DFF4FF47F
:101450007A70DFF818150A68096891FBF0F100FB53
:101460001120B0F5FA7F10DB0323012294ED000A6E
:10147000B7EEC00A2821412002F068F8DFF85824AE
:101480002821002001F030FF05E0DFF8982928210D
:10149000412001F029FFDFF844243C21002001F025
:1014A00023FFDFF834275021002001F01DFF10BD7D
:1014B00010B502230122E04890ED000AB7EEC00A01
:1014C0000021502002F042F80323DE4890ED000A8C
:1014D000BCEEC00A10EE102A1421412001F0C8FF12
:1014E000D94C0323012294ED000AB7EEC00A28214B
:1014F000412002F02BF80323012294ED020AB7EEFB
:10150000C00A5021412002F021F8CA4A00210020DF
:1015100001F0EAFECA4A1421002001F0E5FEDFF8DE
:10152000B8232821002001F0DFFE4FF47A70DFF8A5
:101530003C140A68096891FBF0F100FB1120B0F53A
:10154000FA7F0FDB0423012294ED010AB7EEC00AF3
:101550003C21412001F0FAFFE04A3C21002001F04B
:10156000C3FE05E0DFF8BC283C21412001F0BCFEB1
:10157000DFF864265021002001F0B6FE10BD000007
:10158000900A0910DC0B091010B502230122AA48A9
:1015900090ED000AB7EEC00A0021502001F0D6FFFE
:1015A0000323A84890ED000ABCEEC00A10EE102AF2
:1015B0001421412001F05CFFA34C0323012294ED90
:1015C000000AB7EEC00A2821412001F0BFFF042322
:1015D000012294ED010AB7EEC00A3C21412001F03E
:1015E000B5FF944A0021002001F07EFE944A1421A8
:1015F000002001F079FEB84A2821002001F074FE95
:10160000B64A3C21002001F06FFE4FF47A70D749B2
:101610000A68096891FBF0F100FB1120B0F5FA7F30
:1016200010DB0323012294ED020AB7EEC00A502119
:10163000412001F08BFFDFF8A0255021002001F0B0
:1016400053FE05E0DFF8DC275021412001F04CFE7D
:1016500010BD0000E80B0910F40B0910000C091074
:10166000200D091024070228B893022880B54FF4F2
:101670007A70BE490A68096891FBF0F100FB1120FD
:10168000B0F5FA7F06DBDFF8F82A0021002001F030
:101690002BFE05E0DFF88C270021002001F024FE5E
:1016A000DFF8E02A0821002001F01EFEDFF8D82A2A
:1016B0001021002001F018FEDFF8D02A18210020A8
:1016C00001F012FEDFF8C82A2021002001F00CFEF4
:1016D000DFF8C02A2821002001F006FEDFF8B82A32
:1016E0003021002001F000FEDFF8942A382100208C
:1016F00001F0FAFD01BD000051940228BC930228BC
:10170000280D0910529402280C0C091010B5DFF8AE
:10171000704A22000021002001F0E6FD4FF47A70AB
:1017200092490A68096891FBF0F100FB1120B0F5BD
:10173000FA7F06DBDFF84C2A0821002001F0D4FDF7
:1017400005E0DFF8E0260821002001F0CDFDDFF8FC
:10175000382A1021002001F0C7FDDFF8302A1821B7
:10176000002001F0C1FDDFF8282A2021002001F02F
:10177000BBFDDFF8202A2821002001F0B5FDDFF8AD
:10178000182A3021002001F0AFFD2200382100206E
:1017900001F0AAFD10BD0000180C091032940228B7
:1017A000240C0910300C091010B5DFF8D4492200C0
:1017B0000021002001F098FDDFF8C8290821002051
:1017C00001F092FD4FF47A7068490A68096891FB4C
:1017D000F0F100FB1120B0F5FA7F06DBDFF8A82955
:1017E0001021002001F080FD05E0DFF838261021EF
:1017F000002001F079FDDFF894291821002001F084
:1018000073FDDFF88C292021002001F06DFDDFF849
:1018100084292821002001F067FDDFF87C29302190
:10182000002001F061FD22003821002001F05CFD64
:1018300010BD00003C0C0910D8910228A409091021
:10184000480C0910F89102281892022810B5DFF808
:10185000304922000021002001F046FDDFF8242954
:101860000821002001F040FDDFF81C291021002094
:1018700001F03AFD4FF47A703C490A68096891FB1F
:10188000F0F100FB1120B0F5FA7F06DBDFF8FC2851
:101890001821002001F028FD05E0DFF88825182137
:1018A000002001F021FDDFF8E8282021002001F0D0
:1018B0001BFDDFF8E0282821002001F015FDDFF8EE
:1018C000D8283021002001F00FFD2200382100200F
:1018D00001F00AFD10BD0000540C0910600C091045
:1018E00010B5DFF89C4822000021002001F0FCFC2C
:1018F000DFF890280821002001F0F6FCDFF88828A6
:101900001021002001F0F0FCDFF8802818210020D1
:1019100001F0EAFC4FF47A7014490A68096891FBF7
:10192000F0F100FB1120B0F5FA7F06DBDFF860284C
:101930002021002001F0D8FC05E0DFF8E02A20217A
:10194000002001F0D1FCDFF84C282821002001F014
:10195000CBFCDFF844283021002001F0C5FC220038
:101960003821002001F0C0FC10BD0000AC9302281B
:1019700010B5DFF80C4822000021002001F0B4FC73
:10198000DFF800280821002001F0AEFCDFF8F8277E
:101990001021002001F0A8FCDFF8F027182100201A
:1019A00001F0A2FCDFF8E8272021002001F09CFCD8
:1019B0004FF47A70DFF8681A0A68096891FBF0F151
:1019C00000FB1120B0F5FA7F06DBDFF8C8272821DD
:1019D000002001F089FC05E0DFF8402A28210020E2
:1019E00001F082FCDFF8B0273021002001F07CFC00
:1019F00022003821002001F077FC10BD10B5DFF87F
:101A0000804722000021002001F06EFCDFF87427DF
:101A10000821002001F068FCDFF86C27102100206D
:101A200001F062FCDFF864271821002001F05CFC63
:101A3000DFF85C272021002001F056FCDFF8542756
:101A40002821002001F050FC4FF47A70DFF8D01903
:101A50000A68096891FBF0F100FB1120B0F5FA7FEC
:101A600006DBDFF834273021002001F03DFC05E0E3
:101A7000DFF8A8293021002001F036FC22003821AF
:101A8000002001F031FC10BD10B5DFF8F446220053
:101A90000021002001F028FCDFF8E82608210020C2
:101AA00001F022FCDFF8E0261021002001F01CFCF0
:101AB000DFF8D8261821002001F016FCDFF8D02628
:101AC0002021002001F010FCDFF8C826282100208A
:101AD00001F00AFCDFF8C0263021002001F004FCF0
:101AE0004FF47A70DFF838190A68096891FBF0F151
:101AF00000FB1120B0F5FA7F05DB22003821002021
:101B000001F0F2FB04E0C74A3821002001F0ECFBB1
:101B100010BD2DE9F0410024DFF8040C01781229F2
:101B200002DB0078B0F11204DFF8F82B002100206E
:101B300001F0DAFB02230222DFF8EC0B90ED000A41
:101B4000B7EEC00A0021182001F000FD0223022296
:101B5000DFF8D80B90ED000AB7EEC00A0021422052
:101B600001F0F4FC00252AE002233A00D2B2310051
:101B7000C9B289B2062001F07BFCDFF8808D022318
:101B800002223800C0B208EBC00090ED000AB7EEA8
:101B9000C00A3100C9B289B2182001F0D7FC022373
:101BA0000222FFB208EBC70090ED010AB7EEC00AAF
:101BB000F6B2310089B2422001F0C8FC6D1C280049
:101BC000C0B2122806DA6E1CF6002F193800C0B217
:101BD0006428C9DBBDE8F0816C0C09102DE9F843DD
:101BE0000025DFF83C4B2078122802DB2078B0F18A
:101BF0001205DFF8302B0021002001F075FB0223D5
:101C00000222DFF8240B90ED000AB7EEC00A002193
:101C1000182001F09BFC02230222DFF8100B90ED4C
:101C2000000AB7EEC00A0021422001F08FFC002616
:101C30002BE002234246D2B23900C9B289B2062053
:101C400001F016FCDFF8E89B022302224046C0B2F6
:101C500009EBC00090ED000AB7EEC00A3900C9B226
:101C600089B2182001F072FC022302225FFA88F880
:101C700009EBC80090ED010AB7EEC00AFFB23900C7
:101C800089B2422001F062FC761C3000C0B21228FA
:101C900007DA771CFF0016EB05084046C0B264283F
:101CA000C7DB2078122801DA217800E01221C4A2D3
:101CB000C9B2C90089B2002001F016FBBDE8F1836A
:101CC000780C09102DE9F0410024DFF8540A01785E
:101CD000122902DB0078B0F1120400252AE0022369
:101CE0003A00D2B23100C9B289B2062001F0C0FB7D
:101CF000DFF8448D022302223800C0B208EBC00096
:101D000090ED000AB7EEC00A3100C9B289B21820BE
:101D100001F01CFC02230222FFB208EBC70090ED89
:101D2000010AB7EEC00AF6B2310089B2422001F0D2
:101D30000DFC6D1C2800C0B2122806DA6E1CF600DD
:101D40002F193800C0B26428C9DBBDE8F0812DE945
:101D5000F8430025DFF8C8492078122802DB2078F4
:101D6000B0F11205DFF8BC290021002001F0BCFA17
:101D7000DFF88C6B0623012296ED080B002118205A
:101D800001F0E4FB0623012296ED060B002148201A
:101D900001F0DCFB002629E002234246D2B23900E2
:101DA000C9B289B2062001F063FBDFF8589B062315
:101DB00001224046C0B20001484490ED020B3900B8
:101DC000C9B289B2182001F0C1FB062301225FFAD3
:101DD00088F85FEA081809EB080090ED000BFFB2E5
:101DE000390089B2482001F0B1FB761C3000C0B246
:101DF000122807DA771CFF0016EB05084046C0B230
:101E00006428C9DB2078122801DA217800E0122149
:101E10006BA2C9B2C90089B2002001F065FABDE821
:101E2000F1830000840C091010B5DFF8D44A0423B4
:101E300022880021002001F01BFB0223A278002150
:101E4000282001F015FB0223E2780021502001F048
:101E50000FFBDFF8182B0821002001F045FA0523BD
:101E6000227A0821282001F003FB8FA210210020F4
:101E700001F03AFA0623042294ED060B10212820E3
:101E800001F064FBBBA21821002001F02DFA06230B
:101E9000042294ED080B1821282001F057FBB6A26C
:101EA0002021002001F020FA0623042294ED0B0AE1
:101EB000B7EEC00A2021282001F048FBDFF8202BD4
:101EC0002821002001F010FA0623042294ED0C0AC8
:101ED000B7EEC00A2821282001F038FBDFF82C2CAF
:101EE0003021002001F000FA052394F83C20302135
:101EF000282001F0BDFA10BD2DE9F0410024DFF8E3
:101F000020080178122902DB0078B0F11204DFF812
:101F100014280021002001F0E7F902230222DFF853
:101F2000080890ED000AB7EEC00A0021182001F061
:101F30000DFB02230222DFF8F40790ED000AB7EE52
:101F4000C00A0021422001F001FB00252AE0022303
:101F50003A00D2B23100C9B289B2062001F088FA43
:101F6000DFF8AC8B022302223800C0B208EBC000BD
:101F700090ED000AB7EEC00A3100C9B289B218204C
:101F800001F0E4FA02230222FFB208EBC70090ED51
:101F9000010AB7EEC00AF6B2310089B2422001F060
:101FA000D5FA6D1C2800C0B2122806DA6E1CF600A5
:101FB0002F193800C0B26428C9DBBDE8F0810000E9
:101FC0002A0000002DE9F8430025DFF85447207867
:101FD000122802DB2078B0F11205DFF84827002133
:101FE000002001F081F902230222DFF83C0790ED86
:101FF000000AB7EEC00A0021182001F0A7FA022358
:102000000222DFF8280790ED000AB7EEC00A00218F
:10201000422001F09BFA00262BE002234246D2B276
:102020003900C9B289B2062001F022FADFF8E49A39
:10203000022302224046C0B209EBC00090ED000A24
:10204000B7EEC00A3900C9B289B2182001F07EFA91
:10205000022302225FFA88F809EBC80090ED010A1A
:10206000B7EEC00AFFB2390089B2422001F06EFA21
:10207000761C3000C0B2122807DA771CFF0016EB7E
:1020800005084046C0B26428C7DB2078122801DA70
:10209000217800E0122139A2C9B2C90089B200201A
:1020A00001F022F9BDE8F183453A00002DE9F04145
:1020B0000024DFF86C060178122902DB0078B0F109
:1020C0001204DFF860260021002001F00DF9022340
:1020D0000222DFF8440A90ED000AB7EEC00A0021A0
:1020E000182001F033FA02230222DFF8300A90EDC3
:1020F000000AB7EEC00A0021422001F027FA0025AD
:102100002AE002233A00D2B23100C9B289B20620D5
:1021100001F0AEF9DFF8088A022302223800C0B2CB
:1021200008EBC00090ED000AB7EEC00A3100C9B25A
:1021300089B2182001F00AFA02230222FFB208EB4A
:10214000C70090ED010AB7EEC00AF6B2310089B2BD
:10215000422001F0FBF96D1C2800C0B2122806DAFB
:102160006E1CF6002F193800C0B26428C9DBBDE828
:10217000F08100004E3A0000563A00002A000000AC
:10218000900C0910A00A0910B00A0910300D0910AE
:10219000C00A0910380D0910D00A09102DE9F843BA
:1021A0002DED068B82B00400002C04D00D00280019
:1021B00080B2022800DA2AE194ED008A94ED000A48
:1021C000D4ED018AD4ED010A012044E0010089B276
:1021D00004EBC10191ED001AB4EE481AF1EE10FAC9
:1021E00005D5010089B204EBC10191ED008A01001F
:1021F00089B204EBC10191ED001AB4EE410AF1EE8F
:1022000010FA05D5010089B204EBC10191ED000A75
:10221000010089B204EBC10191ED011AB4EE681A14
:10222000F1EE10FA05D5010089B204EBC101D1ED40
:10223000018A010089B204EBC10191ED011AF4EEAB
:10224000410AF1EE10FA05D5010089B204EBC10193
:10225000D1ED010A401C01002A0089B292B29142DC
:10226000B4D330EE480A70EEE80A9FED6B1AB4EE74
:10227000410AF1EE10FA01D5B0EE410AF4EE410A3E
:10228000F1EE10FA01D5F0EE410ADFF89808008867
:10229000103801EE100AB8EEC11ADFF88C683088E9
:1022A000103801EE900AF8EEE11A81EE009A81EE04
:1022B000A02AB4EE429AF1EE10FA01D4B0EE429A9E
:1022C00000EE491AB0EE000A81EE000AB2EE001AE2
:1022D00070EE019A40EEC91AB0EE000A81EE800A53
:1022E000F2EE000A30EE20AA00F042FD00200021AC
:1022F0005FF0000954E0484680B2290089B2491EC7
:10230000884249D14FF4FC62390089B2404680B21C
:1023100000F090FD40E04A4692B204EBC20292ED1A
:10232000000A30EE480AF0EE690A40EE090ABDEEF6
:10233000E00A10EE108A328800EE102AB8EE400A49
:102340004A4692B204EBC202D2ED010A70EEE80AEC
:10235000B0EE4A1A00EE891A30EE410ABDEEC00A0C
:1023600010EE107A4A4692B2002A0AD04FF4784210
:1023700000923B009BB2424692B289B280B200F01A
:1023800097FD484680B20028B5D11F22390089B296
:10239000404680B200F04EFD4046390019F1010977
:1023A0004A462B0092B29BB29A42B4D3DFF87C47E4
:1023B0002078002806D1DFF878270021002000F0DF
:1023C00093FF05E0DFF86C270021002000F08CFF70
:1023D0002078012815D1DFF860170878002806D189
:1023E000DFF858270021322000F07EFF0FE0087848
:1023F00001280CD1DFF848270021322000F074FFBB
:1024000005E0DFF840270021322000F06DFF02B028
:10241000BDEC068BBDE8F1836F12833AE00A091028
:10242000AC9302282DE9F8432DED0A8B82B004000D
:102430000D00002C03D0280080B2022800DA69E1E8
:102440009FEDBB8B94ED000B20EE080B9FEDBB2B9B
:1024500080EE020B01F062FEB0EE409B9FEDB6AA4B
:10246000DFEDB50ADFEDB4AA9FEDB30A002055E019
:10247000B4EE4A1AF1EE10FA01D5B0EE41AAF4EE2C
:10248000410AF1EE10FA01D5F0EE410AF4EE6A1AB3
:10249000F1EE10FA01D5F0EE61AAB4EE610AF1EEA8
:1024A00010FA3AD5B0EE610A37E0010089B20901AD
:1024B000214491ED021B94ED022B31EE421B21EEE3
:1024C000081B9FED9E3B81EE031B010089B20901B1
:1024D000214491ED002B94ED003B32EE432B22EE94
:1024E000082B9FED964B82EE043B9FEDB42B21EE23
:1024F000021B21EE091BB7EEC11B23EE022BF7EEE8
:10250000C21B010089B20029B2D1F0EE410AB0EE3F
:1025100060AAB0EE610AF0EE40AA401C01002A0059
:1025200089B292B29142C0D370EECA0A30EE6A0A02
:102530009FEDA11AF4EE410AF1EE10FA01D5F0EE8A
:10254000410AB4EE410AF1EE10FA01D5B0EE410AAB
:10255000DFF8D0050088103801EE100AB8EEC11A75
:10256000DFF8C4653088103801EE900AF8EEE11A01
:1025700081EE20BA81EE802AB4EE42BAF1EE10FA72
:1025800001D4B0EE42BA00EECB1AF0EE000AC1EE72
:10259000200AB2EE001A70EE81BA40EE4B1AB0EE8D
:1025A000000A81EE800AF2EE000A30EE20CA00F046
:1025B000DFFB002000215FF0000974E0484680B294
:1025C000290089B2491E884269D14FF4FC62390062
:1025D00089B2404680B200F02DFC60E04A4692B2DB
:1025E0001201224492ED020B94ED021B30EE410BDE
:1025F00020EE080B9FED512B80EE020B4A4692B263
:102600001201224492ED001B94ED002B31EE421B8F
:1026100021EE081B9FED493B81EE032B9FED671BCD
:1026200020EE010B20EE090BB7EEC00B22EE011BD2
:10263000F7EEC10B30EE4A0AB0EE6B1A00EE0B1A41
:10264000BDEEC10A10EE108A328800EE102AB8EEF4
:10265000400A70EEEA0AB0EE4C1A00EE8B1A30EE29
:10266000410ABDEEC00A10EE107A4A4692B2002A24
:102670000AD04FF4784200923B009BB2424692B29D
:1026800089B280B200F014FC484680B2002895D18F
:102690001F22390089B2404680B200F0CBFB404691
:1026A000390019F101094A462B0092B29BB29A42B5
:1026B00094D3DFF878442078002806D1DFF870241E
:1026C0000021002000F010FE05E0DFF86824002162
:1026D000002000F009FE2078012815D1DFF85814F9
:1026E0000878002806D1DFF854240021322000F0B9
:1026F000FBFD0FE0087801280CD1DFF8442400210D
:10270000322000F0F1FD05E0DFF83824002132200E
:1027100000F0EAFD02B0BDEC0A8BBDE8F1830000D9
:1027200057940228400D0910B8930228BC93022840
:1027300000000060FB2109400000000000000000D4
:102740000080664080B54FF47A70DFF8FC130A68A9
:10275000096891FBF0F100FB1120B0F5FA7F06DB70
:10276000DFF8E8230021002000F0BEFD05E0DFF8DF
:10277000E0230021002000F0B7FDDFF8D823082176
:10278000002000F0B1FDDFF8D0231021002000F080
:10279000ABFDDFF8C8231821002000F0A5FDDFF80D
:1027A000C0232021002000F09FFDDFF8B82328215E
:1027B000002000F099FD01BD6F12833A0000000077
:1027C000AE4D584180B5DFF884230021002000F091
:1027D0008BFD4FF47A70DFF870130A68096891FB7B
:1027E000F0F100FB1120B0F5FA7F06DBDFF864237F
:1027F0000821002000F078FD05E0DFF86C230821B7
:10280000002000F071FDD44A1021002000F06CFD82
:10281000D24A1821002000F067FDD14A2021002073
:1028200000F062FDCF4A2821002000F05DFD01BDCF
:102830000075022880B5C54A0021002000F054FD33
:10284000C44A0821002000F04FFD4FF47A70BE49C1
:102850000A68096891FBF0F100FB1120B0F5FA7FDE
:1028600005DBBD4A1021002000F03EFD04E0BE4A19
:102870001021002000F038FDB84A1821002000F097
:1028800033FDB74A2021002000F02EFDB54A282153
:10289000002000F029FD01BD80B5AC4A00210020D8
:1028A00000F022FDAB4A0821002000F01DFDAA4ADD
:1028B0001021002000F018FD4FF47A70A2490A6838
:1028C000096891FBF0F100FB1120B0F5FA7F05DB00
:1028D000A24A1821002000F007FD04E0A24A1821B6
:1028E000002000F001FD9E4A2021002000F0FCFCA9
:1028F0009C4A2821002000F0F7FC01BD2078022826
:10290000C89002288068022880B5904A00210020E3
:1029100000F0EAFC8F4A0821002000F0E5FC8E4A16
:102920001021002000F0E0FC8C4A1821002000F06B
:10293000DBFC4FF47A7084490A68096891FBF0F176
:1029400000FB1120B0F5FA7F05DB854A202100202D
:1029500000F0CAFC04E0844A2021002000F0C4FCFE
:10296000804A2821002000F0BFFC01BD480D09105D
:1029700080B5764A0021002000F0B6FC754A082197
:10298000002000F0B1FC744A1021002000F0ACFCE3
:10299000724A1821002000F0A7FC714A2021002073
:1029A00000F0A2FC4FF47A7067490A68096891FB4D
:1029B000F0F100FB1120B0F5FA7F05DB694A282110
:1029C000002000F091FC04E0674A2821002000F07C
:1029D0008BFC01BD80B532216448FFF723FD01BDAA
:1029E000500D091038B5624C6248017889B2200058
:1029F000FFF7D4FB604D02232A780821002000F065
:102A000037FD02230222287804EBC00090ED000A73
:102A1000B7EEC00A0821142000F098FD022302221C
:102A2000287804EBC00090ED010AB7EEC00A082137
:102A3000502000F08BFD31BD80810228704738B5F1
:102A4000334C4E48017889B22000FFF7A7FB4A4D6E
:102A500002232A780821002000F00AFD0223022226
:102A6000287804EBC00090ED000AB7EEC00A0821F8
:102A7000142000F06BFD02230222287804EBC00032
:102A800090ED010AB7EEC00A0821502000F05EFD6B
:102A900031BD704738B5224C3948017889B22000E1
:102AA000FFF77CFB344D02232A780821002000F038
:102AB000DFFC02230222287804EBC00090ED000A1C
:102AC000B7EEC00A0821142000F040FD02230222C4
:102AD000287804EBC00090ED010AB7EEC00A082187
:102AE000502000F033FD31BDF8B500200390802068
:102AF0000290A020019078200090BC23214A002160
:102B0000002000F0CFFD05B000BD0000580D0910F9
:102B1000407B0228607E0228C8930228CC930228BA
:102B2000A08402284C0802284E0802285994022842
:102B3000600D0910680D09105A9402289C0C0910A8
:102B4000A80C0910780C0910AC930228B40C0910D9
:102B5000840C0910F00A0910000B0910180A09105A
:102B6000700D0910100B09102C0A0910C0870228DB
:102B70002078022846940228589402284894022873
:102B8000499402286008022880B501000820DFF877
:102B9000FC2A1060C9B2012001F03CFD0820DFF8DA
:102BA000FC1A086001BD2DE9F047060015001F0062
:102BB000DFF8DC8A3000B8F8002080B2904201D201
:102BC000012000E000200C00DFF8C89AAF2249463F
:102BD000C0B202F088FADFF8C0AA2000BAF80010EC
:102BE00080B2884201D2012000E00020B022494694
:102BF000C0B202F078FA2800B8F8001080B288421B
:102C000001D2012000E00020B1224946C0B202F00A
:102C10006AFA3800BAF8001080B2884201D2012066
:102C200000E00020B2224946C0B202F05CFADFF8B0
:102C3000700A00780028012803D9801E01282FD9A6
:102C40005CE02A20FFF7A0FF0021012001F0E2FC58
:102C5000B61C3100C9B2012001F0DCFC00210120CA
:102C600001F0D8FCAD1C2900C9B2012001F0D2FC52
:102C70002B20FFF789FF0021012001F0CBFC641C11
:102C80002100C9B2012001F0C5FC0021012001F0A2
:102C9000C1FC7F1C3900C9B2012001F0BBFC2DE052
:102CA0002A20FFF771FF0021012001F0B3FC761C00
:102CB0003100C9B2012001F0ADFC0021012001F07A
:102CC000A9FC6D1C2900C9B2012001F0A3FC2B2036
:102CD000FFF75AFF0021012001F09CFCA41C2100F9
:102CE000C9B2012001F096FC0021012001F092FC04
:102CF000BF1C3900C9B2012001F08CFC2C20FFF769
:102D000043FFBDE8F08700B585B0684602F019FAC8
:102D10000120ADF80000DFF878090088ADF8020066
:102D2000DFF874090088ADF80400DFF8D40A0078F1
:102D3000002803D002280FD007D30DE006208DF81D
:102D4000060008208DF8070006E008208DF8060030
:102D500010208DF80700FFE70FF28D5003900FF25F
:102D600011000490684602F0FCF905B000BD0000B7
:102D7000F8B5DFF81C492088400002F047FA05004A
:102D8000002000200820DFF87C1A0860DFF80869BE
:102D90003088431E9BB22088421E92B20021002040
:102DA000FFF701FF002007E0DFF85C1A0988020046
:102DB00092B225F81210401C0100228889B291427B
:102DC000F2D3002705E022882900012001F0CCFC85
:102DD0007F1C3800318880B28842F4D30820DFF8A5
:102DE0002C1A0860280002F01AFAF1BDDFF8B018BA
:102DF000087008780028012803D9801E012809D905
:102E000010E08020DFF888180880A020DFF88818FC
:102E1000088007E0A020DFF8781808808020DFF81D
:102E2000781808807047DFF8E8291080DFF8D809A3
:102E300001807047F8B504000D0016002000DFF88F
:102E40005018098880B2884201D2012000E0002099
:102E5000DFF8407840F273123900C0B202F043F953
:102E60002800DFF83418098880B2884201D2012096
:102E700000E000204FF4BA723900C0B202F033F91A
:102E80000820DFF8801908602B009BB2220092B264
:102E9000290089B2200080B2FFF785FE310089B297
:102EA000012001F00CFC0820DFF860190860F1BD7A
:102EB0002DE9F0472DED028B060015001F00DFF80D
:102EC000D0873000B8F8002080B2904201D20120B3
:102ED00000E000200C00DFF8BC9740F28B1249465E
:102EE000C0B202F000F9DFF8B0A72000BAF8001075
:102EF00080B2884201D2012000E000204FF4C67267
:102F00004946C0B202F0EFF82800B8F8001080B2CD
:102F1000884201D2012000E0002040F28D12494693
:102F2000C0B202F0E0F83800BAF8001080B288426F
:102F300001D2012000E000204FF4C7724946C0B220
:102F400002F0D1F83000290080B289B2884202D262
:102F50005FF0010901E05FF0FF392000390080B225
:102F600089B2884202D25FF0010A01E05FF0FF3AC5
:102F70009FED5F0A9FED5E0ADDF828803000290092
:102F800080B289B2884238D0210089B2380080B23C
:102F9000091A00EE101AB8EEC00A310089B22800F2
:102FA00080B2091A00EE901AF8EEE00A80EE208A4C
:102FB000200080B200EE100AF8EE408A300080B2A5
:102FC00000EE100AB8EE400A40EE488A310089B29D
:102FD000280080B2091A00291ED4310089B22800C5
:102FE00080B2091A1DE0424692B2210089B2300037
:102FF00080B2FFF71FFF1AEB04042000390080B2F3
:1030000089B28842EFD1424692B2210089B23000A3
:1030100080B2FFF70FFF66E0290089B2300080B26E
:10302000091A220092B2380080B2121A002A05D47E
:10303000220092B2380080B2121A04E03A0092B232
:10304000200080B2121A91423FDA17E0424692B253
:10305000210089B2300080B2FFF7ECFE1AEB0404C5
:10306000200080B200EE100AB8EE400A30EE680A86
:1030700080EE080ABDEEC00A10EE106A200039008A
:1030800080B289B28842E1D1424692B2210089B22F
:10309000300080B2FFF7CEFE25E0424692B221001A
:1030A00089B2300080B2FFF7C5FE19EB060630008A
:1030B00080B200EE100AB8EE400AF0EE680A40EE68
:1030C000080ABDEEE00A10EE104A3000290080B276
:1030D00089B28842E1D1424692B2210089B23000E1
:1030E00080B2FFF7A7FEBDEC028BBDE8F0870000C1
:1030F00000000000F8B5D8B005000E00140028004C
:10310000DFF88C15098880B2884201D2012000E0E6
:103110000020DFF8807540F2CB123900C0B201F018
:10312000E2FF3000DFF87015098880B2884201D2D2
:10313000012000E000204FF4E6723900C0B201F037
:10314000D2FF002000200820DFF8B8160860DFF862
:10315000B0060078002804D0022800F0BF8046D3D3
:10316000BCE0F31D9BB26A1D92B2310089B2280007
:1031700080B2FFF718FD002000E0401C0100C9B23A
:1031800006292EDA0621DFF88C262300DBB24B431A
:103190001A440300DBB21A4412F8C02C00230BE0DF
:1031A00040AD1E00F6B24E4356FA80F6DFF8587670
:1031B0003F8825F8167010E01D00EDB2082DDCDA0E
:1031C000D507EDD540AD1E00F6B24E4356FA80F657
:1031D000DFF83C763F8825F81670D2B252085B1CA7
:1031E000EAE7302240A9012001F0BEFA76E016F1AC
:1031F0000F039BB2EA1D92B2310089B2280080B25F
:10320000FFF7D1FC002000E0401C0100C9B20829F2
:103210005EDADFF804262100C9B209011144030077
:10322000DBB21944B1F5007109782300DBB21B0150
:103230001A440300DBB21A44B2F5FC721278002380
:103240001BE06D461E00F6B2F60056FA80F6DFF877
:10325000B8753F8825F816700CE0CD07F1D56D469E
:103260001E00F6B2F60056FA80F6DFF8A4753F8825
:1032700025F81670C9B249085B1C1D00EDB2082D77
:10328000EBDB00210DE06B460D00EDB2ED0055FAD1
:1032900080F503EB4503DFF870552D88A3F88050C7
:1032A00012E00B00DBB2082BAEDAD307EBD56B468E
:1032B0000D00EDB2ED0055FA80F503EB4503DFF8A4
:1032C00050552D88A3F88050D2B25208491CE8E727
:1032D00080226946012001F047FAFFE70820DFF865
:1032E0002C15086059B0F0BDF8B504000E001500AB
:1032F0002000DFF89C13098880B2884201D20120A7
:1033000000E00020DFF88C7340F222223900C0B2C6
:1033100001F0E9FE3000DFF88013098880B28842AE
:1033200001D2012000E0002040F223223900C0B287
:1033300001F0D9FE00270EE00CE0380080B22A5CD4
:10334000310089B2380080B2C00010FA84F080B237
:10335000FFF7D0FE7F1C380080B2285C002817D011
:10336000DFF8B8040078002803D00228E4D0E4D3C2
:10337000F0E7380080B22A5C310089B23B009BB292
:103380000620434313FA84F080B2FFF7B3FEE1E76F
:10339000F1BD2DE9FE43070016001D003800BC4AB0
:1033A000128880B2904201D2012000E000200C007F
:1033B000DFF8E0824FF410724146C0B201F093FE94
:1033C0002000DFF8B817098880B2884201D20120B6
:1033D00000E0002040F241224146C0B201F083FEED
:1033E0002800C0B2002801D0012000E0002040F2F7
:1033F00042224146C0B201F076FE2800C0B20B283E
:1034000001DA012000E0002040F243224146C0B230
:1034100001F069FE5FF001080C210022E9464846F0
:1034200001F03EFF2900C9B2491C2022E946484666
:1034300001F036FF2800C0B20A280CDA03E00A20A7
:1034400000FB08F86D1E2800C0B20028F7D196FBDB
:10345000F8F008FB10663100684601F059FF6A4633
:10346000210089B2380080B2FFF73EFFBDE8F78344
:103470002DE9FE43070016001D003800844A12881B
:1034800080B2904201D2012000E000200C00DFF861
:10349000048240F267224146C0B201F024FE2000BF
:1034A000DFF8D816098880B2884201D2012000E0F6
:1034B00000204FF41A724146C0B201F014FE2800F9
:1034C000C0B2002801D0012000E0002040F26922B3
:1034D0004146C0B201F007FE2800C0B20B2801DA55
:1034E000012000E0002040F26A224146C0B201F013
:1034F000FAFD5FF001080C210022E946484601F080
:10350000CFFE2900C9B22022E946484601F0C8FE94
:103510002800C0B20A280CDA03E00A2000FB08F8F1
:103520006D1E2800C0B20028F7D1B6FBF8F008FBEA
:1035300010663100684601F02EFF6A46210089B20C
:10354000380080B2FFF7D0FEBDE8F7832DE9F041E7
:103550002DED028B86B00500B0EE408B16001F00EB
:1035600028004B4A128880B2904201D2012000E02C
:1035700000200C00DFF81C8140F291224146C0B2CD
:1035800001F0B1FD2000DFF8F415098880B288420F
:1035900001D2012000E0002040F292224146C0B258
:1035A00001F0A1FD3000C0B2002801D0012000E0F0
:1035B000002040F293224146C0B201F094FD300059
:1035C000C0B2092801DA012000E000204FF4257282
:1035D0004146C0B201F087FD3800C0B2002801D0DA
:1035E000012000E0002040F295224146C0B201F0E7
:1035F0007AFD3800C0B2072801DA012000E000207F
:1036000040F296224146C0B201F06DFDB7EE000BCC
:1036100011210022E846404601F042FE3800C0B2C7
:1036200050FA86F1891C2022E846404601F038FE17
:1036300004E0B2EE042B20EE020B761E3000C0B286
:103640000028F6D1BDEEC81B11EE100ABDEEC01B5E
:1036500011EE101A90FBF1F001EE100AB8EEC11B4A
:1036600001EE408B3900C9B2B0EE480B684601F05C
:10367000CBFE6A46210089B2280080B2FFF734FEF3
:1036800006B0BDEC028BBDE8F0810000040B3140B8
:103690004C080228480609104E080228080B314041
:1036A000669402282DE9F84F804614009A46DFF808
:1036B000D0944046B9F8002080B2904201D2012057
:1036C00000E000200F00DFF8BCB440F2F3225946BE
:1036D000C0B201F008FD3800DFF8A014098880B2FC
:1036E000884201D2012000E000204FF43D7259468B
:1036F000C0B201F0F8FC002C01D0012000E0002055
:103700000C9D0B9E40F2F5225946C0B201F0EBFC35
:103710000020002000200020B9F80000400001F047
:1037200075FD8146082037490860E819431E9BB2A1
:1037300016EB0800421E92B2390089B2404680B2B0
:10374000FFF731FA5FF0000B0A9FDDF8348007E0E5
:10375000320092B24946012001F006F81BF1010B3C
:10376000280080B2834541D2380080B200FB0BF0C4
:10377000290089B2B0FBF1F1504680B241432144A7
:1037800000220EE04FF6FF7029F8120008E04346D1
:10379000DBB280B29BB29842F4D2002029F812002A
:1037A000521C300080B28242D2D2504680B200FB1E
:1037B00002F033009BB2B0FBF3F0085C4346DBB28F
:1037C000002BE4D10300DBB2DB08DBB2DB02844672
:1037D0005FFA8CFC5FEA9C0C5FFA8CFC53EA4C139A
:1037E000C0F3C400034329F81230D9E70820DFF8FA
:1037F00098130860484601F012FDBDE8F18F000003
:103800006794022804063140520802280806314015
:10381000500802288CF908102CE60810679402283A
:103820001FB5082002900420019001200090012380
:10383000D94A0021012001F063F90323002201216C
:10384000B32001F0EFFE032300220121B42001F098
:10385000E9FE032301220121632001F0E3FE03239B
:1038600001220121582001F0DDFECC4C2078FFF729
:10387000BDFAC7480188C7480088FFF7D4FA10206E
:10388000C74908600A2000F041FA1020C5490860C5
:10389000782000F03BFA0820BC4908601120FFF7AF
:1038A00073F9782000F032FAB120FFF76DF90121A9
:1038B000012000F0AFFE2C21012000F0ABFE2D21F5
:1038C000012000F0A7FEB220FFF75EF901210120E0
:1038D00000F0A0FE2C21012000F09CFE2D210120F3
:1038E00000F098FEB320FFF74FF90121012000F00E
:1038F00091FE2C21012000F08DFE2D21012000F0F1
:1039000089FE0121012000F085FE2C21012000F01C
:1039100081FE2D21012000F07DFEB420FFF734F957
:103920000721012000F076FEC020FFF72DF9A2212B
:10393000012000F06FFE0221012000F06BFE8421C7
:10394000012000F067FEC120FFF71EF9C52101200C
:1039500000F060FEC220FFF717F90A21012000F0F5
:1039600059FE0021012000F055FEC320FFF70CF99D
:103970008A21012000F04EFE2A21012000F04AFE9B
:10398000C420FFF701F98A21012000F043FEEE2157
:10399000012000F03FFEC520FFF7F6F80E210120C0
:1039A00000F038FE3620FFF7EFF82078002805D029
:1039B00002280DD007D303280FD012E0C021012028
:1039C00000F028FE0DE00021012000F023FE08E0B9
:1039D000A021012000F01EFE03E06021012000F084
:1039E00019FEE020FFF7D0F80F21012000F012FEB1
:1039F0001A21012000F00EFE0F21012000F00AFE26
:103A00001821012000F006FE2F21012000F002FE07
:103A10002821012000F0FEFD2021012000F0FAFD08
:103A20002221012000F0F6FD1F21012000F0F2FD0F
:103A30001B21012000F0EEFD2321012000F0EAFD12
:103A40003721012000F0E6FD0021012000F0E2FD19
:103A50000721012000F0DEFD0221012000F0DAFD47
:103A60001021012000F0D6FDE120FFF78DF80F2195
:103A7000012000F0CFFD1B21012000F0CBFD0F2124
:103A8000012000F0C7FD1721012000F0C3FD332104
:103A9000012000F0BFFD2C21012000F0BBFD2921F9
:103AA000012000F0B7FD2E21012000F0B3FD3021F0
:103AB000012000F0AFFD3021012000F0ABFD3921E5
:103AC000012000F0A7FD3F21012000F0A3FD00210F
:103AD000012000F09FFD0721012000F09BFD032144
:103AE000012000F097FD1021012000F093FD2A2015
:103AF000FFF74AF80021012000F08CFD022101208F
:103B000000F088FD0021012000F084FD82210120C9
:103B100000F080FD2B20FFF737F80021012000F096
:103B200079FD0321012000F075FD0021012000F046
:103B300071FD8321012000F06DFDF020FFF724F8D6
:103B40000121012000F066FDF620FFF71DF800219D
:103B5000012000F05FFD3A20FFF716F80521012053
:103B600000F058FD2920FFF70FF8082006490860EB
:103B7000FFF7FEF8FFF7C7F81FBD00004E08022848
:103B80004C08022848060910080631400406314056
:103B9000520802285008022880C3C90166940228EE
:103BA000040B3140080B3140022801D301200FE003
:103BB0000B00DBB2042B01DB012009E0954B03EB8A
:103BC0008000C9B2405C824201D3012000E00020A5
:103BD0007047F8B506000F0015001C00022E01D337
:103BE00001201CE02A003900C9B23000FFF7DCFFD9
:103BF000012801D1012012E03800C0B2002811D103
:103C0000B4F5807F0CD284487603304400EB850005
:103C100010F58050016864F30F2101600020F2BDAF
:103C20000120FCE7FFB2012F10D1B4F5803F0BD289
:103C300079487603304400EB850010F5A050016808
:103C400064F317210160E9E70120E8E70120E6E7D6
:103C500000B20012C0B27047F8B505000E001700A0
:103C6000280000B2FFF7F4FF04002000C0B20228D1
:103C700001D3012023E03A003100C9B22000C0B2D4
:103C8000FFF792FF012801D1012018E062492000CE
:103C9000C0B2400308442A00D2B200EB8200D0F840
:103CA000000CF6B266F3092067F30700E4B2640380
:103CB0002144EDB201EB8501C1F8000C0020F2BDFA
:103CC00070B504000D001600022C01D301201CE089
:103CD00032002900C9B22000FFF766FF012801D198
:103CE000012012E04C496003085850F0004050F0A9
:103CF000407050F47F00EDB265F3092066F30700D1
:103D00006203885064030859002070BDF8B50400B0
:103D10004FF4FA504443414D414E00212878C001F0
:103D2000304401F08FFD14E02878C001304401F0E8
:103D30008BFDB842F8D33B4F3C192878C001304482
:103D400001F082FD3F1839002878C001304401F0AD
:103D500079FD4CF25137BC42E6D22878C00130449C
:103D600001F072FD8442F8D2F1BD38B594B0502113
:103D700000226C46200001F093FA2B4C0022012116
:103D8000B4F90000FFF768FFB4F90000FFF760FF27
:103D9000092300220121C0B2FFF71BFFB4F9000084
:103DA000FFF756FF00220121C0B2FFF789FF5FF045
:103DB000FF30009000208DF8040000208DF80500F1
:103DC00000208DF8060000208DF8080003208DF8F3
:103DD00044000120129001208DF807000F4C104D77
:103DE00069462078C001284401F062FC2078C001B7
:103DF000284401F01DFD00212078C001284401F075
:103E000021FD2078C001284401F02EFD15B030BD01
:103E100000000000000D0910000004405F080228A7
:103E200000005940B03CFFFF540802289FED8F2B43
:103E300020EE021B53EC112B1946F0B421F0004484
:103E400057EC116B274647EC126B9FED8A4BB4EE93
:103E5000442BF1EE10FA2DED068B2BD5B6EE002B90
:103E600053EC122B01F00041194355EC124B0D4657
:103E700045EC124B32EE011BBDEEC11B11EE101AC8
:103E8000002900F09D80BAEEC21B9FED7C3B01EE45
:103E9000030B9FED7C5B01EE050B9FED7C7B01EE40
:103EA000070B9FED7C9B01EE090B9FED7C3B01EE28
:103EB000030B85E055EC104B6B0043EAD4735A15A5
:103EC000DB1712F1010F14D14FF0FF30834208BF0E
:103ED000824208D12D0345EA14552403002D08BF62
:103EE000002C40F0BF80BDEC068B9FED6E0BF0BC4C
:103EF000704724F0000235F0004308BF002A08D1C3
:103F0000002800F0AF80BDEC068BB7EE000BF0BCD4
:103F10007047B6EE002B53EC122B01F00041194311
:103F200055EC124B0D4645EC124B32EE011B53EC97
:103F3000112B5D0045EAD2755400002D08BF002CFE
:103F400019D040F23341A1EB5551352904DB02F081
:103F5000000203F000430CE0202903DD2039CB40B0
:103F60008B4000E001D1002203E00029C4BFCA4019
:103F70008A4043EC112B53EC112B22F0000433F058
:103F8000004508BF002C17D09FED483B21EE032BC6
:103F90009FED3A5B02EE050B9FED3A7B02EE070BBD
:103FA0009FED3A9B02EE090B9FED3AAB02EE0A0B36
:103FB0009FED3A5B02EE050BBDEEC11B11EE101A30
:103FC00053EC102B23F0004301F0030143EC112BC1
:103FD0009FED383B0818B4EE431BF1EE10FA04D500
:103FE000C1073BD5B7EE000B38E0C10720EE001B40
:103FF0001AD59FED322B9FED334B01EE024B9FED17
:10400000336B04EE016B9FED338B06EE018B9FED5E
:10401000332B08EE012B9FED334B02EE014BB7EE35
:10402000000B04EE010B19E09FED307B9FED314B4F
:1040300001EE074B9FED318B04EE018B9FED31AB11
:1040400008EE01AB9FED317B0AEE017B9FED314B1A
:1040500020EE012B07EE014B02EE040B800748BF58
:10406000B1EE400BBDEC068BF0BC704783C8C96D48
:10407000305FE43F0000A0FFFFFFDF410000005081
:10408000FB21B9C100000060B41011C00000002085
:1040900026A651BE000000005C14D3BC0000002026
:1040A0009A833BBBFFFFFFFFFFFFFF7F0000000085
:1040B0000000303E000000000000403E09260A10CB
:1040C00039BA213E3BA861C6F97D92BE63AC3090FF
:1040D0009F01FA3EF6FB51166CC156BFB102555511
:1040E0005555A53FAEFFFFFFFFFFDFBFB08F2FC3CA
:1040F00010D8E53D8F0C73A1E1E55ABE4DADE44FFC
:10410000E31DC73E3EE3B519A0012ABFFAF0101126
:104110001111813F425555555555C5BF012085E6C2
:10412000D0F80803C005C00D704710F541710A684A
:1041300052F480320A6010F541710A6832F480321C
:104140000A60D0F804037047C0F840127047D0F8F6
:104150000802C005C00D7047D0F80802C0F3C03097
:10416000704738B505002800FFF7F1FF040028006C
:10417000FFF7F2FF0419002C01D1012000E000201C
:10418000C0B232BD0068C0F38130002801D1802068
:1041900000E040207047016851F000410160704725
:1041A0002030026861F39B620260704780B5FFF7C0
:1041B000B7FF02BD80B5FFF7B8FF01BD022801D3EC
:1041C000012010E00B00DBB2042B01DB01200AE030
:1041D000DFF8283703EB8000C9B2405C824201D38C
:1041E000012000E000207047F8B504000F00150022
:1041F0001E00022C01D301202AE02A003900C9B296
:104200002000FFF7DBFF012801D1012020E0069804
:104210003900C9B202291ED1B6F5803F19D2202833
:1042200017D24FF4C052DFF8D81663030B4403EBE8
:10423000850313441F6866F317271F606403214436
:1042400001EB850111440A6860F3C7020A6000208F
:10425000F2BD0120FCE7FFB2032F1FD1B6F1807F32
:104260001AD2202818D24FF4E052DFF894166303D4
:104270000B4403EB850313441F6807F0FF0757EA5D
:1042800006271F606403214401EB850111440A687D
:1042900060F3C7020A60DAE70120D9E70120D7E717
:1042A00000B20012C0B27047F8B505000E0017004A
:1042B000280000B2FFF7F4FF04002000C0B202287B
:1042C00001D3012024E03A003100C9B22000C0B27D
:1042D000FFF774FF012801D1012019E0DFF8201653
:1042E0002000C0B2400308442A00D2B200EB820092
:1042F000D0F8000CF6B266F3092067F30700E4B2C9
:1043000064032144EDB201EB8501C1F8000C0020EB
:10431000F2BD70B504000D001600022C01D301207F
:104320001DE032002900C9B22000FFF747FF012835
:1043300001D1012013E0DFF8C8156003085850F0E0
:10434000004050F0407050F47F00EDB265F309205A
:1043500066F307006203885064030859002070BDAB
:104360000100C020C9B2002905D0022907D004D31A
:10437000032906D006E0122004E0622002E07A2041
:1043800000E01A20C0B270470100C020C9B2002965
:1043900005D0022907D004D3032906D006E0112056
:1043A00004E0612002E0792000E01920C0B27047EB
:1043B0000100C020C9B2002905D0022907D004D3CA
:1043C000032906D006E0102004E0602002E07820F7
:1043D00000E01820C0B270470100C020C9B2002917
:1043E0000BD002290DD00AD304290ED00BD30629F5
:1043F0000FD00CD307290ED00EE013200CE01420B0
:104400000AE0632008E0642006E07B2004E0292025
:1044100002E01B2000E01C20C0B270470100002019
:10442000C9B2002905D0022907D004D3032906D038
:1044300006E0132004E0132002E0132000E0132024
:10444000C0B2704701000020C9B2002905D002297E
:1044500007D004D3032906D006E0132004E013207C
:1044600002E0132000E01320C0B2704701000020DA
:10447000C9B2002905D0022907D004D3032906D0E8
:1044800006E0132004E0132002E0132000E01320D4
:10449000C0B2704701000020C9B200290BD0022928
:1044A0000DD00AD304290ED00BD306290FD00CD37C
:1044B00007290ED00EE013200CE013200AE0132091
:1044C00008E0132006E0132004E0132002E013208C
:1044D00000E01320C0B27047C9B2082902D01029E9
:1044E00046D096E0DFF808160200D2B251F822203A
:1044F000126832F440420300DBB251F823301A60F4
:104500000200D2B251F82220D2F800225209520100
:104510000300DBB251F82330C3F800220200D2B20C
:1045200051F82220D2F8002252F007020300DBB239
:1045300051F82330C3F800220200D2B251F82220F1
:10454000D2F80023520952010300DBB251F82330A4
:10455000C3F800230200D2B251F82220D2F800237F
:1045600052F00702C0B251F82000C0F8002350E01A
:10457000DFF87C150200D2B251F82220126832F422
:1045800040420300DBB251F823301A600200D2B27D
:1045900051F82220126852F480420300DBB251F835
:1045A00023301A600200D2B251F82220D2F8002241
:1045B000520952010300DBB251F82330C3F8002244
:1045C0000200D2B251F82220D2F8002252F00F029B
:1045D0000300DBB251F82330C3F800220200D2B24C
:1045E00051F82220D2F80023520952010300DBB215
:1045F00051F82330C3F800230200D2B251F8222030
:10460000D2F8002352F00F02C0B251F82000C0F8D7
:1046100000237047F8B504000E0008212000C0B246
:10462000FFF75AFFDFF8CC542000C0B2285C0828FE
:104630000FD02000C0B2285CC010DFF8BC1411EB12
:10464000C01101202200D2B2AA5C12F007029040F1
:104650000860DFF89C74F6B231002000C0B257F851
:104660002000FFF771FD2000C0B257F82000FFF7CF
:1046700089FD06002000C0B257F82000FFF767FD53
:104680008642F0D02000C0B257F82000FFF769FD45
:104690000028F7D02000C0B2285C08280ED02000E7
:1046A000C0B2285CC010DFF8541411EBC011012017
:1046B000E4B22A5D12F0070290400860F1BDF8B53F
:1046C00004000E0010212000C0B2FFF705FFDFF844
:1046D00024542000C0B2285C08280FD02000C0B2AB
:1046E000285CC010DFF8101411EBC011012022006B
:1046F000D2B2AA5C12F0070290400860DFF8F073B3
:10470000B6B231002000C0B257F82000FFF71CFD00
:104710002000C0B257F82000FFF734FD060020004B
:10472000C0B257F82000FFF712FD8642F0D02000FB
:10473000C0B257F82000FFF714FD0028F7D0200082
:10474000C0B2285C08280ED02000C0B2285CC0107F
:10475000DFF8A81311EBC0110120E4B22A5D12F0BA
:10476000070290400860F1BD2DE9F84307000D00F5
:10477000140010213800C0B2FFF7AEFEDFF87463FA
:104780003800C0B2305C08280FD03800C0B2305CAE
:10479000C010DFF8641311EBC01101203A00D2B24F
:1047A000B25C12F0070290400860DFF84483298869
:1047B0003800C0B258F82000FFF7C6FCAD1C380026
:1047C000C0B258F82000FFF7DDFC81463800C0B2C7
:1047D00058F82000FFF7BBFC8145F0D0641E002C88
:1047E000E3D13800C0B258F82000FFF7BAFC002827
:1047F000F7D03800C0B2305C08280ED03800C0B204
:10480000305CC010DFF8F41211EBC0110120FFB2D0
:10481000F25D12F0070290400860BDE8F1832DE9D7
:10482000F04104000F00160008212000C0B2FFF77D
:1048300053FEDFF8C0522000C0B2285C08280FD019
:104840002000C0B2285CC010DFF8AC1211EBC01120
:1048500001202200D2B2AA5C12F007029040086048
:10486000DFF88C82FFB239002000C0B258F8200077
:10487000FFF76AFC2000C0B258F82000FFF782FC66
:1048800007002000C0B258F82000FFF760FC874204
:10489000F0D0F6B231002000C0B258F82000FFF787
:1048A00053FC2000C0B258F82000FFF76BFC060054
:1048B0002000C0B258F82000FFF749FC8642F0D033
:1048C0002000C0B258F82000FFF74BFC0028F7D0BA
:1048D0002000C0B2285C08280ED02000C0B2285C9E
:1048E000C010DFF8181211EBC0110120E4B22A5DEC
:1048F00012F0070290400860BDE8F081000D091039
:1049000000000440F8B504000D000020082120003C
:10491000C0B2FFF7E1FD774E2000C0B2305C08283E
:104920000ED02000C0B2305CC010734911EBC01132
:1049300001202200D2B2B25C12F00702904008605F
:104940006B4F2000C0B257F82000FFF72FFC002863
:1049500005D02000C0B257F82000FFF72BFCEDB2C5
:1049600029002000C0B257F82000FFF7EDFB20001F
:10497000C0B257F82000FFF719FC0028F7D020003C
:10498000C0B257F82000FFF715FC00212000C0B28C
:1049900057F82000FFF7D8FB2000C0B257F82000DE
:1049A000FFF7DFFB0028F7D02000C0B257F8200047
:1049B000FFF7FCFB0028F7D02000C0B257F820001A
:1049C000D0F840032100C9B2715C08290DD0210044
:1049D000C9B2715CC910494A12EBC1120121E4B29B
:1049E000335D13F0070399401160C0B2F2BD2DE9A9
:1049F000F84380460D0016001C0008214046C0B256
:104A0000FFF76AFD3B4F4046C0B2385C08280ED025
:104A10004046C0B2385CC010374911EBC0110120CC
:104A20004246D2B2BA5C12F0070290400860DFF84A
:104A3000C0904046C0B259F82000FFF7B7FB0028ED
:104A400005D04046C0B259F82000FFF7B3FBEDB2E5
:104A500029004046C0B259F82000FFF775FB4046D8
:104A6000C0B259F82000FFF7A1FB0028F7D040465C
:104A7000C0B259F82000FFF79DFB00214046C0B2AC
:104A800059F82000FFF760FB4046C0B259F82000FB
:104A9000FFF767FB0028F7D04046C0B259F8200066
:104AA000FFF784FB0028F7D04046C0B259F8200039
:104AB000D0F840033070761C641E002CDDD14046D7
:104AC000C0B2385C08280FD04046C0B2385CC01075
:104AD0000A4911EBC01101205FFA88F817F8082085
:104AE00012F0070290400860BDE8F183000000006A
:104AF000FC070228189402280400314008003140C5
:104B00002DE9F84F2DED028B9EB006000F0099465F
:104B1000042080B202FB00F2A848B0FBF2F8A748DC
:104B200002FB180000EE100AB8EE400B01EE102A4E
:104B3000B8EE411B80EE010BBFEEED0B10EE100B3B
:104B400008EE100A3421002201AC200000F0A8FB7E
:104B50003C2100220EAC200000F0A2FB30004946B0
:104B6000C0B2C9B2884201D1012000E000202A9DD4
:104B7000DFF84CA24FF470725146C0B200F0B3FAA5
:104B800048462900C0B2C9B2884201D1012000E0E4
:104B900000202B9C40F2C1325146C0B200F0A3FA73
:104BA000062002902800C0B2FFF74CFC8DF80C00E4
:104BB0002800C0B2FFF7E8FB82465FF0080B280030
:104BC000C0B2FFF7E1FB7F4D01AA9AFBFBF10BFBA3
:104BD00011AA5146C0B2C010C001284400F0D5FE51
:104BE000062002904846C0B2FFF718FC8DF80C0072
:104BF0004846C0B2FFF7B4FB82465FF0080B484658
:104C0000C0B2FFF7ADFB01AA9AFBFBF10BFB11AAA7
:104C10005146C0B2C010C001284400F0B6FE2000CA
:104C2000C0B204281ED0082002902000C0B2FFF7B6
:104C30001DFC8DF80C002000C0B2FFF7B9FB8146C7
:104C40005FF0080A2000C0B2FFF7B2FB01AA99FB8F
:104C5000FAF10AFB11994946C0B2C010C0012844BC
:104C600000F093FE2C9C2000C0B208281ED0062025
:104C700002902000C0B2FFF70DFC8DF80C00200060
:104C8000C0B2FFF7A9FB81465FF0080A2000C0B25E
:104C9000FFF7A2FB01AA99FBFAF10AFB1199494619
:104CA000C0B2C010C001284400F06FFE3000C0B296
:104CB000032803D23000C0B2401C00E000203200C4
:104CC000D2B2D21D032110F58F7000B2FFF7ECFABB
:104CD0003000C0B2032803D23000C0B2401C00E054
:104CE000002010F58F7000B2FFF7DAFA8DED008A20
:104CF000B8F1010843463200D2B2D21D0321C0B23E
:104D0000FFF772FA3000C0B2032803D23000C0B2FD
:104D1000401C00E0002010F58F7000B2FFF7C0FAD1
:104D20003200D2B2D21D0321C0B2FFF7F2FAFFB2B5
:104D3000002F05D0022F09D005D3032F09D00AE098
:104D40000020109007E00120109004E00220109055
:104D500001E00320109001200E9000200F9004200D
:104D60001190082012900820139001208DF8500017
:104D700001208DF85300104D00220EA93000C0B262
:104D800055F8200000F040FE00213000C0B255F878
:104D90002000FFF705FA3000C0B255F82000FFF7F9
:104DA000FAF90448F6B284551EB0BDEC028BBDE89A
:104DB000F18F000018940228FC07022800B4C404F4
:104DC0007C0709100000314082B0002001900020D3
:104DD00000900020019009E00098401C009000988D
:104DE000B0F5005FF8D30198401C01900198B0F530
:104DF000805F02D200200090F1E702B0704780B5DA
:104E00000100002001F0CEF901BD2DE9F043ADF520
:104E1000137D0700884616001C000020ADF8020034
:104E20000020ADF80000002002900020ADF8040042
:104E30000020ADF80600404601F04CFD0290DFF87E
:104E400090532888002801D028698047DFF8840320
:104E50000078002800F033812888002800F01181B4
:104E6000BDF90600411CADF806103A00010089B2F8
:104E70000020EB6898474746404601F02BFD029022
:104E80006888A97990FBF1F0ADF804003800471C60
:104E900000780028FAD10020ADF800000EE07F1E57
:104EA00038782F2802D038785C2804D1BDF800006B
:104EB000401CADF800000298401E0290BDF80000B2
:104EC000022802DA02980028E9D50298002806D4C0
:104ED0007A1CDFF8041353A801F018FD0EE0BDF8AA
:104EE0000000002805D13A00BC4953A801F00EFD8E
:104EF00004E03A00B84953A801F008FD0020ADF8DD
:104F0000020042E0BDF80010BDF80020BDF80230FC
:104F100053AF9BB2BDF90400434313FA82F0385CEF
:104F200043AA89B25054BDF80000401CADF80000FF
:104F3000BDF8000080B2BDF9041088420EDA53A813
:104F400001F0C8FCBDF80020BDF802309BB2BDF9ED
:104F500004104B4313FA82F18842D3D2002043A9B4
:104F6000BDF800208854BDF90600411CADF80610BC
:104F700043AAE97911FB00F189B20020EB68984758
:104F8000BDF80200401CADF80200BDF8027053A845
:104F900001F0A0FCBDF90410B0FBF1F0401CBFB261
:104FA000874203D20020ADF80000C1E732008C49EF
:104FB00053A801F0ABFCBDF90600411CADF806108A
:104FC00053AAE97911FB00F189B20020EB689847F8
:104FD000002C74D00020ADF8020041E0BDF80010B4
:104FE000BDF80020BDF802309BB2BDF90400434378
:104FF00013FA82F0205C43AA89B25054BDF8000035
:10500000401CADF80000BDF8000080B2BDF90410EE
:1050100088420EDA200001F05DFCBDF80020BDF8EA
:1050200002309BB2BDF904104B4313FA82F188425F
:10503000D4D2002043A9BDF800208854BDF9060051
:10504000411CADF8061043AAE97911FB00F189B2C1
:105050000020EB689847BDF80200401CADF8020044
:10506000BDF80260200001F035FCBDF90410B0FB72
:10507000F1F0401CB6B2864221D20020ADF800000B
:10508000C1E74FF4807100220DF10C09484600F091
:1050900007F93800A9688847002C07D0009433002E
:1050A0004246504903A801F031FC05E03300424676
:1050B0004D4903A801F02AFC03A8A96888470DF50B
:1050C000137DBDE8F08310B542480078002809D070
:1050D000474C2100002001F073F8012221004348D1
:1050E00001F099FC10BD38B50C001500C0B20028C5
:1050F00003D140480078002800D131BD3E490878EE
:10510000002800D0FEE70878401C087001F08CFEF3
:1051100000232A0021003948FFF777FEFFF754FEED
:10512000F6E710B514001A00C0B2002808D12948CB
:105130000078002804D00B0021003148FFF765FEFD
:1051400010BD002101804FF6FF7141808180FF2159
:105150008171C171002181600021C1600021016164
:1051600070471B4902880A8042884A8082888A8068
:1051700082798A71C279CA7182688A60C268CA609B
:1051800000690861012013490870704700B585B0B7
:105190006846FFF7D6FF1B4802906846FFF7E1FF1D
:1051A00005B000BD80B5FFF7F1FF002300225FF4DA
:1051B000E131002001F08EFA4023134A00210B4810
:1051C00001F0C9FD0121002001F0C2F801BD00007D
:1051D000409302285D940228C00C0910200B09108E
:1051E000CC0C091034090910EC090910E4920228CA
:1051F0005E9402285E0802285F940228300B091092
:10520000D80C0910FF4D08105891022810B501F074
:1052100033FE040008BF01F0CDFE204610BD01F0B2
:10522000CCBEF0B40246106895681318506803EBC2
:105230005004C00748BF4D44A3422DD013F8016B62
:1052400016F0030004BF13F8010BC01C31090F292D
:1052500007D113F8011B0F3103E013F8017B05F8A8
:10526000017B401EF9D10029E6D013F8010BC6F3EB
:105270008106032E08BF13F8016B00EB06204042A5
:1052800028440026B71E8F421EBF10F8017B05F888
:10529000017B761CF6D1CFE7F0BC02F10C00704721
:1052A00062F30F2262F31F42401810F0030308D08C
:1052B000C91A1FD3DB0748BF00F8012D28BF20F80B
:1052C000022D130030B414461546103928BF20E9CA
:1052D0003C00FAD8490728BF20E90C0048BF40F835
:1052E000042D890028BF20F8022D48BF00F8012DA9
:1052F00030BC7047C91818BF00F8012DCB0728BF74
:1053000000F8012D70470268531C0360117070474C
:1053100038B584B005000C00002D01D0012000E05C
:1053200000209F22DFF87412C0B2FFF7DCFE0020DD
:105330000021002D2DD0002C04D52D2129706D1CAD
:10534000644206E0002C04D13020287021E049425C
:105350000AE0002C19D00A2194FBF1F201FB124162
:105360000200501C0029F2D46B46D2B299540A2193
:1053700094FBF1F4EDE769460200D2B2114411F852
:10538000011C303129706D1C401E0100C9B200297A
:10539000F1D105B030BD38B584B005000C00002D4A
:1053A00001D0012000E00020EB22DFF8F011C0B2B4
:1053B000FFF799FE0020002D22D0002C0FD13020C5
:1053C00028701DE00A21B4FBF1F201FB12416A468C
:1053D0000300DBB2D154401C0A21B4FBF1F4002CD1
:1053E000F0D10100C9B200290AD069460200D2B248
:1053F000114411F9011C303129706D1C401EF0E779
:1054000005B030BD00000000F8B52DED028B96B060
:105410000400B0EE408B0D00002C01D0012000E014
:1054200000204FF4F172DFF87411C0B2FFF75BFE99
:10543000002000202900002C71D0BDEEC80B10EE1A
:10544000100A9FED541BB4EE418BF1EE10FA09D512
:105450002D222270641C00EE100AB8EEC00B38EE4C
:10546000400B13E09FED4B1BB4EE418BF1EE10FAB5
:10547000F1D130202070601C2E210170401C3021A1
:1054800001704CE0B2EE042B20EE020B0A00511E1C
:10549000D2B2002AF6D1BDEEC00B10EE101A0022D7
:1054A0000A2390FBF3F603FB160309AE1700FFB2C5
:1054B00046F82730521C0A2390FBF3F00028EFD166
:1054C0001000C0B200281ED02000441C09AB1600FA
:1054D000F6B203EB860353F8043C002B07D409AB68
:1054E0001600F6B203EB860353F8043C07E009AB61
:1054F0001600F6B203EB860353F8043C5B423033EC
:105500000370521EDCE72800C0B2002807D000203C
:105510002E222270621C002914D13020107016B087
:10552000BDEC028BF1BD0A2391FBF3F403FB1413D2
:105530006C460600F6B244F82630401C0A2391FB64
:10554000F3F16D1E2B00DBB2002BECD10100C9B2D0
:105550000029E4D011004A1C6B460400E4B203EBBE
:10556000840353F8043C002B07D46B460400E4B2D8
:1055700003EB840353F8043C07E06B460400E4B2F9
:1055800003EB840353F8043C5B4230330B70401E42
:10559000DCE700000000000000000000A805091082
:1055A0000069C84010F001007047012212FA01F1B1
:1055B00081607047012212FA01F14160704780B5A5
:1055C000C9B200290ED00100C9B2082291FBF2F342
:1055D00002FB1311354AC0B2C010C0011044FFF7DE
:1055E000E4FF0DE00100C9B2082291FBF2F302FBD7
:1055F00013112E4AC0B2C010C0011044FFF7DAFFE9
:1056000001BD80B50100C9B2082291FBF2F302FB93
:105610001311264AC0B2C010C0011044FFF7C0FFEA
:10562000C0B202BD2DE9F8418DB004000E00150096
:105630001F0034210022E8464046FFF731FEF6B253
:10564000002E0ED1FFB2002F02D0022F03D005E0B2
:105650000F2001900DE0082001900AE00820019041
:1056600007E0FFB2042F02D10F20019001E00E20CD
:1056700001902000C0B2C0280FD02100C9B208207C
:105680006A4691FBF0F300FB131108482300DBB2DC
:10569000DB10DB01184400F078F92900C9B22000C2
:1056A000C0B2FFF78CFF0EB0BDE8F08100003140C2
:1056B00010B4012291F84C30052B03D291F84D30F3
:1056C000052B01D31000A7E0002800F0A4800029DA
:1056D00000F0A180514A12684B7963F392428B79B2
:1056E00013F0030363F311420B7A13F0070363F320
:1056F0001A62CB7963F39E720B7D63F3000291F81B
:10570000243063F3410202600A7910F130031C680F
:1057100062F307041C604A79012A0BD18A79002AB6
:1057200002D10022826007E08A79012A04D10A6846
:10573000826001E001228260CA6802610A694261F6
:10574000CA6982610A6AC2610A680262344A1268DE
:105750000B7E03F0FF03120A12021A4391F8303055
:1057600003F0FF0363F3174291F8403003F0FF03A7
:1057700063F31F6291F8483003F0FF0363F30F22D5
:105780004264284A126891F8383003F0FF03120A85
:1057900012021A4391F8283003F0FF0363F30F223B
:1057A0008264214A12688B7D13F0030392089200F1
:1057B0001A4391F8253013F0030363F38B2291F819
:1057C0002C3013F0030363F3051291F8343013F017
:1057D000030363F3092291F83C3013F0030363F3EE
:1057E000871291F8443013F0030363F38302C26419
:1057F0000E4A126891F84C3013F00703D208D20019
:105800001A4391F84D3013F0070363F30612426513
:10581000497D81670022100010BC7047E40D09101B
:10582000E80D0910EC0D0910F00D0910F40D091028
:10583000016851F0004101607047016821F00041AA
:1058400001607047816070478068704778300168F8
:1058500051F001010160704710F170010A6852F0C7
:1058600001020A60006F70474030016851F010017A
:105870000160704730B4614B1818C009604C14EBDC
:10588000001404290DD223681F25C8008540AB43AE
:10589000D2B212F01F02C90012FA01F119432160BD
:1058A0000CE0091F63681F25C8008540AB43D2B2D6
:1058B00012F01F02C9008A401A43626030BC704770
:1058C000002A04D1012212FA01F1416003E0012211
:1058D00012FA01F18160704710B48900436C0F2403
:1058E0008C40A34312F00F0212FA01F119434164F4
:1058F00010BC704710B4836C01248C40A34312F099
:10590000010212FA01F11943816410BC704710B40E
:10591000C36C01248C40A34312F0010212FA01F17E
:105920001943C16410BC704710B449001031C36CF6
:1059300003248C40A34312F0030212FA01F119432D
:10594000C16410BC70474269012212FA01F1416141
:105950004069704710B4836901248C40A34312F05E
:10596000010212FA01F11943816110BC704710B4B1
:105970004900036C03248C40A34312F0030212FA83
:1059800001F11943016410BC7047F8B505000E0021
:1059900014000027002D2ED0002C2CD022683100BE
:1059A0002800FFF78DFF227A31002800FFF762FF01
:1059B000626931002800FFF79DFFA26931002800CD
:1059C000FFF7A5FFE26931002800FFF7ADFF62682D
:1059D00031002800FFF780FFE26831002800FFF760
:1059E000C6FF31002800FFF7AEFF22693100280012
:1059F000FFF7B0FF00E0034F3800F2BD0000CFBF5B
:105A00000000304001005A002DE9F041DFF8D031AC
:105A10001C00DFF8D051D5F800C0DFF8CC512D685C
:105A2000DFF8C8613668DFF8C8713F685FF0000EC4
:105A30005FF0000E002800F0D080002900F0CD803B
:105A40004C68002C01D18C6805E04C68022C01D117
:105A5000002400E00224D1F810E0D1F81480C645FB
:105A600002D3D1F810E001E0D1F814E0BEF1090F43
:105A700008D23CF4404C91F82130002B12D05CF459
:105A8000807C11E0BEF1110F03D2012363F38F3C40
:105A9000F1E7BEF1210F03D2022363F38F3CEAE763
:105AA00018009BE03CF4807CCB685B1E13F00F0376
:105AB0005FEA1C1C5FEA0C1C53EA0C0C012363F325
:105AC000196CC0F800C00B7F002B01D0002300E050
:105AD000012363F300054B681B0963F34105CB7E8B
