:020000041008E2
:100000000000082821190910C5250910751F0910BD
:10001000C9250910CD250910D125091000000000BF
:10002000000000000000000000000000692009102E
:10003000D525091000000000D9250910DD2509107B
:10004000AF140910D5140910FB140910211509105B
:10005000471509106D15091093150910B9150910E8
:10006000E1250910E5250910E9250910ED250910FC
:10007000F1250910F5250910F9250910FD250910AC
:1000800080B5002002F0E0FC03F08AF9322003F092
:10009000FDFB02F09BFC01BD80B5DFF8D0180878AD
:1000A000002804D00320DFF8C828107012E0DFF821
:1000B000400B0078002804D00220DFF8B42810702C
:1000C00008E0DFF83C090078002803D00120DFF8C1
:1000D000A0281070DFF898080078012806D0C0F03A
:1000E0002E82032800F0DA802ED328E2DFF81009F0
:1000F000007801280AD026D303280DD009D305287B
:1001000010D00CD3072817D00FD31CE000F018FA3A
:1001100019E000F047FA16E000F076FA13E000F07C
:10012000A5FA10E000F0D4FA0DE0DFF8D82800219D
:10013000002002F007FF06E0DFF8CC2800210020B5
:1001400002F000FFFFE7FAE1DFF8B40800780128C9
:1001500009D0C0F0A28003284BD02ED3052800F090
:10016000958071D399E0DFF8880A007801280CD0D7
:1001700022D303280FD00BD3052812D00ED3072883
:1001800015D011D3082815D016E000F0D3FA13E0EB
:1001900000F01AFB10E000F05DFB0DE000F0A0FBAA
:1001A0000AE000F0E7FB07E000F030FC04E000F0BC
:1001B00073FC01E000F0B4FC6FE0DFF8340A007873
:1001C000012807D014D303280AD006D305280DD060
:1001D00009D30DE000F0DEFD0AE000F053FE07E079
:1001E00000F0BDFE04E000F029FF01E000F0A2FFF6
:1001F00053E0DFF8FC09007801280CD023D3032852
:100200000FD00BD3052812D00ED3072815D011D349
:10021000082815D017E001F01FFA14E001F06CFA7D
:1002200011E001F0B5FA0EE001F004FB0BE001F083
:100230004BFB08E001F090FB05E001F0D3FB02E08E
:1002400001F016FCFFE728E0DFF8A4090078012898
:1002500009D01AD303280CD008D305280FD00BD30C
:1002600006280FD011E002F0CDF80EE002F004F9FC
:100270000BE002F037F908E002F066F905E002F061
:1002800095F902E002F0CCF9FFE706E0DFF860093B
:100290000078012801D102F04FFA50E1DFF8600741
:1002A000007801280AD0C0F04A81032800F0C480F9
:1002B000C0F09780042800F0F88040E1DFF83009B2
:1002C000007801280DD0C0F08B80032829D018D3E6
:1002D000052846D035D3072863D052D3082870D0DC
:1002E0007EE00878012802D0022803D008E000F060
:1002F0005BFC05E0DFF8FC280021002002F022FE74
:100300006EE00878012802D0022803D008E000F04F
:1003100057FC05E0DFF8E0280021002002F012FE83
:100320005EE00878012802D0022803D008E000F03F
:1003300053FC05E0DFF8C4280021002002F002FE93
:100340004EE00878012802D0022803D008E000F02F
:1003500057FC05E0DFF844290021002002F0F2FDFF
:100360003EE00878012802D0022803D008E000F01F
:100370009FFC05E0DFF828290021002002F0E2FDC3
:100380002EE00878012802D0022803D008E000F00F
:10039000DDFC05E0DFF80C290021002002F0D2FD91
:1003A0001EE00878012802D0022803D008E000F0FF
:1003B000D9FC05E0DFF8F0280021002002F0C2FDA2
:1003C0000EE00878012802D0022803D008E000F0EF
:1003D000D5FC05E0DFF8D4280021002002F0B2FDB2
:1003E000ADE0DFF80C080078012807D023D30328FC
:1003F00010D009D3052819D012D31CE008780128A1
:1004000001D100F004FF16E00878012801D100F0C6
:100410006BFF10E00878012801D100F0D2FF0AE05C
:100420000878012801D101F039F804E008780128A2
:1004300001D101F09DF882E0DFF8B40700780128CF
:100440000CD031D3032812D00ED3052818D014D3E2
:1004500007281ED01AD3082821D025E008780128C3
:1004600001D101F0D7FC1FE001F067FC1CE0087827
:10047000012801D101F01CFC16E001F0A5FB13E0FE
:100480000878012801D101F039FB0DE001F090FD61
:100490000AE00878012801D101F024FD04E0087881
:1004A000012801D101F0F8FD49E0DFF844070078A8
:1004B000012809D043D303281AD00FD305282BD005
:1004C00020D3062832D03AE00878012802D002284A
:1004D00003D002E002F0D6F8FFE730E00878012808
:1004E00002D0022803D002E002F0CDF8FFE726E0B8
:1004F0000878012802D0022803D002E002F0EDF8CB
:10050000FFE71CE00878012802D0022803D002E0AF
:1005100002F0E4F8FFE712E00878012802D0022890
:1005200003D002E002F0DBF8FFE708E008780128DA
:1005300002D0022803D002E002F0D2F8FFE701BDAA
:1005400080B54FF47A70DFF82C190A68096891FBBE
:10055000F0F100FB1120B0F5FA7F06DBDFF8182977
:100560000021002002F0EEFC05E0DFF81029002158
:10057000002002F0E7FC92A21421002002F0E2FC2D
:1005800090A22821002002F0DDFCDFF8F4283C21B5
:10059000002002F0D7FCDFF8A02A5021002002F052
:1005A000D1FC01BD80B5DFF8D0280021002002F089
:1005B000C9FC4FF47A70DFF8BC180A68096891FB2F
:1005C000F0F100FB1120B0F5FA7F05DB7CA21421CD
:1005D000002002F0B7FC05E0DFF8A028142100207D
:1005E00002F0B0FC77A22821002002F0ABFCDFF87B
:1005F00090283C21002002F0A5FCDFF83C2A502185
:10060000002002F09FFC01BD80B5DFF86C280021BE
:10061000002002F097FC6AA21421002002F092FC54
:100620004FF47A70DFF84C180A68096891FBF0F112
:1006300000FB1120B0F5FA7F05DB62A22821002023
:1006400002F080FC05E0DFF834282821002002F0C9
:1006500079FCDFF82C283C21002002F073FCDFF845
:10066000D8295021002002F06DFC01BD80B5DFF8D3
:1006700008280021002002F065FC51A2142100206E
:1006800002F060FC4FA22821002002F05BFC4FF436
:100690007A70DFF8E0170A68096891FBF0F100FB57
:1006A0001120B0F5FA7F06DBDFF8D4273C210020CB
:1006B00002F048FC05E0DFF8C4273C21002002F0EE
:1006C00041FCDFF874295021002002F03BFC01BD01
:1006D00080B5DFF8A4270021002002F033FC38A207
:1006E0001421002002F02EFC36A22821002002F066
:1006F00029FCDFF88C273C21002002F023FC4FF47A
:100700007A70DFF870170A68096891FBF0F100FB56
:100710001120B0F5FA7F06DBDFF81C2950210020FC
:1007200002F010FC05E0DFF854275021002002F011
:1007300009FC01BD80B54FF47A70DFF838170A68FC
:10074000096891FBF0F100FB1120B0F5FA7F06DBA0
:10075000DFF8C4290021002002F0F4FB05E0DFF8F7
:100760001C270021002002F0EDFBDFF8B029142146
:10077000002002F0E7FBDFF8A8292821002002F082
:10078000E1FBDFF8A0293C21002002F0DBFBDFF8D1
:1007900098295021002002F0D5FBDFF89029642130
:1007A000002002F0CFFBDFF888296E21002002F044
:1007B000C9FBDFF8B82D7821002002F0C3FB01BD92
:1007C000504944004750530080B5DFF84C290021C0
:1007D000002002F0B7FB4FF47A70DFF898160A6831
:1007E000096891FBF0F100FB1120B0F5FA7F06DB00
:1007F000DFF828291421002002F0A4FB05E0DFF82F
:100800007C261421002002F09DFBDFF8142928210A
:10081000002002F097FBDFF80C293C21002002F0B9
:1008200091FBDFF804295021002002F08BFBDFF858
:10083000FC286421002002F085FBDFF8F4286E21FB
:10084000002002F07FFBDFF8242D7821002002F049
:1008500079FB01BD80B5DFF8C0280021002002F03F
:1008600071FBDFF8B8281421002002F06BFB4FF475
:100870007A70DFF800160A68096891FBF0F100FB56
:100880001120B0F5FA7F06DBDFF89428282100203C
:1008900002F058FB05E0DFF8E4252821002002F0F3
:1008A00051FBDFF880283C21002002F04BFBDFF8F1
:1008B00078285021002002F045FBDFF870286421E1
:1008C000002002F03FFBDFF868286E21002002F0D4
:1008D00039FBDFF8982C7821002002F033FB01BDB2
:1008E00080B5DFF834280021002002F02BFBDFF870
:1008F0002C281421002002F025FBDFF824282821D1
:10090000002002F01FFB4FF47A70DFF868150A68C8
:10091000096891FBF0F100FB1120B0F5FA7F06DBCE
:10092000DFF800283C21002002F00CFB05E0DFF896
:100930004C253C21002002F005FBDFF8EC2750217C
:10094000002002F0FFFADFF8E4276421002002F023
:10095000F9FADFF8DC276E21002002F0F3FADFF865
:100960000C2C7821002002F0EDFA01BD30A50328FF
:10097000A1C0022880B5DFF8A0270021002002F0E6
:10098000E1FADFF898271421002002F0DBFADFF803
:1009900090272821002002F0D5FADFF888273C2193
:1009A000002002F0CFFA4FF47A70DFF8C8140A681A
:1009B000096891FBF0F100FB1120B0F5FA7F06DB2E
:1009C000DFF864275021002002F0BCFA05E0DFF8D0
:1009D000AC245021002002F0B5FADFF85027642142
:1009E000002002F0AFFADFF848276E21002002F065
:1009F000A9FADFF8782B7821002002F0A3FA01BDD4
:100A0000A0C00228B0240910B824091080B5DFF86E
:100A100008270021002002F095FADFF800271421B2
:100A2000002002F08FFADFF8F8262821002002F0DB
:100A300089FADFF8F0263C21002002F083FADFF883
:100A4000E8265021002002F07DFA4FF47A70DFF89A
:100A500024140A68096891FBF0F100FB1120B0F53D
:100A6000FA7F06DBDFF8C4266421002002F06AFA70
:100A700005E0DFF808246421002002F063FADFF8C3
:100A8000B0266E21002002F05DFADFF8E02A78211E
:100A9000002002F057FA01BD80B5DFF87C26002166
:100AA000002002F04FFADFF874261421002002F033
:100AB00049FADFF86C262821002002F043FADFF81B
:100AC00064263C21002002F03DFADFF85C2650212C
:100AD000002002F037FADFF854266421002002F0EB
:100AE00031FA4FF47A70E3490A68096891FBF0F132
:100AF00000FB1120B0F5FA7F06DBDFF834266E210B
:100B0000002002F01FFA04E0DC4A6E21002002F00F
:100B100019FADFF8582A7821002002F013FA01BDF3
:100B200080B5DFF8F4250021002002F00BFADFF891
:100B3000EC251421002002F005FADFF8E425282135
:100B4000002002F0FFF9DFF8DC253C21002002F054
:100B5000F9F9DFF8D4255021002002F0F3F9DFF88D
:100B6000CC256421002002F0EDF9DFF8C4256E21C8
:100B7000002002F0E7F94FF47A70BE490A6809686C
:100B800091FBF0F100FB1120B0F5FA7F06DBDFF8F6
:100B9000DC297821002002F0D5F904E0B74A782159
:100BA000002002F0CFF901BD80B5DFF8902A0021C6
:100BB000002002F0C7F90020DFF8281B087001BDF3
:100BC00080B5DFF87C2A0021002002F0BBF901206B
:100BD000DFF8101B087001BD80B5DFF8682A00211E
:100BE000002002F0AFF90220DFF8F81A087001BD0A
:100BF0002FA5032864220910702209107C220910F5
:100C000080B5DFF8442A0021002002F09BF9DFF8CC
:100C10003C2A0821002002F095F902230322DFF884
:100C2000300A90ED060AB7EEC00A0821282002F02B
:100C30004CFA8EA21021002002F084F90223022235
:100C4000DFF8100A90ED000AB7EEC00A10210C2060
:100C500002F03BFA86A21021322002F073F902233F
:100C60000222DFF8840A90ED000AB7EEC00A1021D4
:100C70003E2002F02AFADFF8742A1821002002F040
:100C800061F90223DFF8680A02781821282002F0AF
:100C9000AEF90320DFF84C1A087001BD8822091054
:100CA00094220910A0220910AC220910B8220910C0
:100CB00080B5DFF8402A0021002002F043F904202B
:100CC000DFF8201A0870DFF884290821002002F0DC
:100CD00039F902230322DFF8780990ED060AB7EE0E
:100CE000C00A0821282002F0F0F960A2102100209B
:100CF00002F028F902230222DFF8580990ED000AD9
:100D0000B7EEC00A10210C2002F0DFF958A2102122
:100D1000322002F017F902230222DFF8CC0990ED0D
:100D2000000AB7EEC00A10213E2002F0CEF9DFF82B
:100D3000BC291821002002F005F90223DFF8B009D0
:100D400002781821282002F052F901BD80B5DFF8A1
:100D5000342A0021002002F0F5F80520DFF884197C
:100D6000087001BD80B5DFF8202A0021002002F0C4
:100D7000E9F80620DFF86C19087001BD80B5DFF8CE
:100D80000C2A0021002002F0DDF80720DFF85419BA
:100D9000087001BD10B54FF47A7036490A680968C9
:100DA00091FBF0F100FB1120B0F5FA7F12DBDFF8C8
:100DB0006C2A0021002002F0C5F802230122DFF88E
:100DC000600A90ED000AB7EEC00A0021502002F040
:100DD0007CF905E0DFF84C2A0021002002F0B2F88F
:100DE000DFF8442A1421002002F0ACF80323DFF8D6
:100DF0003C0A90ED000ABCEEC00A10EE102A142145
:100E0000412002F0F4F8DFF8284A0323012294ED90
:100E1000000AB7EEC00A2821412002F056F9042347
:100E2000012294ED010AB7EEC00A3C21412002F0F4
:100E30004CF90323012294ED020AB7EEC00A5021B7
:100E4000412002F042F9DFF8782A2821002002F040
:100E500079F8DFF8702A3C21002002F073F8DFF8FF
:100E6000642D5021002002F06DF810BD583A0000AA
:100E7000593A00006CA40328C42209106421091007
:100E8000D022091010B502230122DFF8940990ED59
:100E9000000AB7EEC00A0021502002F016F9DFF870
:100EA00090490323012294ED000AB7EEC00A2821DD
:100EB000412002F00AF90423012294ED010AB7EE61
:100EC000C00A3C21412002F000F90323012294EDE5
:100ED000020AB7EEC00A5021412002F0F6F8DFF80E
:100EE0003C290021002002F02DF84FF47A70DFF841
:100EF000641A0A68096891FBF0F100FB1120B0F553
:100F0000FA7F13DBDFF820291421002002F01AF801
:100F10000323DFF8180990ED000ABCEEC00A10EEBA
:100F2000102A1421412002F062F805E0DFF8F428CD
:100F30001421002002F006F8DFF88429282100207F
:100F400002F000F8DFF87C293C21002001F0FAFFD4
:100F5000DFF8702C5021002001F0F4FF10BD10B517
:100F600002230122DFF8B80890ED000AB7EEC00AAC
:100F70000021502002F0A9F80323DFF8B00890ED1B
:100F8000000ABCEEC00A10EE102A1421412002F023
:100F90002EF8DFF89C480423012294ED010AB7EEF5
:100FA000C00A3C21412002F090F80323012294ED75
:100FB000020AB7EEC00A5021412002F086F8DFF89D
:100FC0005C280021002001F0BDFFDFF85C2814211F
:100FD000002001F0B7FF4FF47A70DFF878190A6843
:100FE000096891FBF0F100FB1120B0F5FA7F10DBEE
:100FF0000323012294ED000AB7EEC00A2821412004
:1010000002F063F8DFF8B8282821002001F09AFFE9
:1010100005E0DFF810282821002001F093FFDFF819
:10102000A4283C21002001F08DFFDFF8982B5021EF
:10103000002001F087FF10BDC024091010B5022365
:101040000122DFF8DC0790ED000AB7EEC00A0021AC
:10105000502002F03AF80323DFF8D00790ED000AA1
:10106000BCEEC00A10EE102A1421412001F0BFFF8F
:10107000DFF8BC470323012294ED000AB7EEC00A53
:101080002821412002F021F80323012294ED020AD5
:10109000B7EEC00A5021412002F017F8DFF87C2794
:1010A0000021002001F04EFFDFF87C2714210020F2
:1010B00001F048FFDFF808282821002001F042FF56
:1010C0004FF47A70DFF88C180A68096891FBF0F128
:1010D00000FB1120B0F5FA7F10DB0423012294ED10
:1010E000010AB7EEC00A3C21412001F0EEFFDFF813
:1010F000D4273C21002001F025FF05E0DFF824275C
:101100003C21002001F01EFFDFF8B82A502100200A
:1011100001F018FF10BD0000DC2209107421091035
:101120008421091094210910E8220910A421091032
:10113000F422091010B502230122DFF8E40690ED35
:10114000000AB7EEC00A0021502001F0BEFF0323C1
:10115000DFF8D80690ED000ABCEEC00A10EE102AA7
:101160001421412001F043FFDFF8C446032301228C
:1011700094ED000AB7EEC00A2821412001F0A5FF36
:101180000423012294ED010AB7EEC00A3C2141205C
:1011900001F09BFFDFF884260021002001F0D2FE41
:1011A000DFF884261421002001F0CCFEDFF81027A0
:1011B0002821002001F0C6FEDFF808273C2100208E
:1011C00001F0C0FE4FF47A70DFF888170A680968EA
:1011D00091FBF0F100FB1120B0F5FA7F10DB032347
:1011E000012294ED020AB7EEC00A5021412001F01D
:1011F0006CFFDFF8D0295021002001F0A3FE05E0AC
:10120000DFF820265021002001F09CFE10BD10B513
:101210004FF47A70DFF83C170A68096891FBF0F127
:1012200000FB1120B0F5FA7F12DBDFF8F02500217A
:10123000002001F087FE02230122DFF8E40590ED93
:10124000000AB7EEC00A0021502001F03EFF05E081
:10125000DFF8582A0021502001F074FEDFF8C8257D
:101260001421002001F06EFE0323DFF8C00590ED8D
:10127000000ABCEEC00A10EE102A1421412001F031
:10128000B6FEDFF8AC450323012294ED000AB7EE69
:10129000C00A2821412001F018FF0423012294ED07
:1012A000010AB7EEC00A3C21412001F00EFF0323E2
:1012B000012294ED020AB7EEC00A5021412001F04C
:1012C00004FFDFF8FC252821002001F03BFEDFF8B9
:1012D000F4253C21002001F035FEDFF8E8285021FC
:1012E000002001F02FFE10BD10B502230122DFF80F
:1012F000300590ED000AB7EEC00A0021502001F041
:10130000E4FEDFF82C450323012294ED000AB7EE3A
:10131000C00A2821412001F0D8FE0423012294EDC7
:10132000010AB7EEC00A3C21412001F0CEFE0323A2
:10133000012294ED020AB7EEC00A5021412001F0CB
:10134000C4FEDFF8D8240021002001F0FBFD4FF49B
:101350007A70DFF800160A68096891FBF0F100FB6B
:101360001120B0F5FA7F13DBDFF8BC241421002034
:1013700001F0E8FD0323DFF8B40490ED000ABCEEB1
:10138000C00A10EE102A1421412001F030FE05E0C1
:10139000DFF87C2A1421412001F0D4FDDFF820255C
:1013A0002821002001F0CEFDDFF818253C21002087
:1013B00001F0C8FDDFF80C285021002001F0C2FD2B
:1013C00010BD10B502230122DFF8540490ED000A8D
:1013D000B7EEC00A0021502001F077FE0323DFF8AA
:1013E0004C0490ED000ABCEEC00A10EE102A142145
:1013F000412001F0FCFDDFF838440423012294ED84
:10140000010AB7EEC00A3C21412001F05EFE032331
:10141000012294ED020AB7EEC00A5021412001F0EA
:1014200054FEDFF8F8230021002001F08BFDDFF8E7
:10143000F8231421002001F085FD4FF47A70DFF8C5
:1014400014150A68096891FBF0F100FB1120B0F552
:10145000FA7F10DB0323012294ED000AB7EEC00AE5
:101460002821412001F031FEDFF8542428210020FA
:1014700001F068FD05E0DFF898292821412001F0FE
:1014800061FDDFF840243C21002001F05BFDDFF826
:1014900034275021002001F055FD10BD10B5022366
:1014A0000122DF4890ED000AB7EEC00A002150206B
:1014B00001F00BFE0323DD4890ED000ABCEEC00AEC
:1014C00010EE102A1421412001F091FDD84C032385
:1014D000012294ED000AB7EEC00A2821412001F054
:1014E000F4FD0323012294ED020AB7EEC00A502155
:1014F000412001F0EAFDC94A0021002001F022FD4F
:10150000C94A1421002001F01DFDDFF8B423282171
:10151000002001F017FD4FF47A70DFF838140A68E4
:10152000096891FBF0F100FB1120B0F5FA7F0FDBA9
:101530000423012294ED010AB7EEC00A3C214120A8
:1015400001F0C3FDDF4A3C21002001F0FBFC05E077
:10155000DFF8BC283C21412001F0F4FCDFF86426D0
:101560005021002001F0EEFC10BD0000B421091054
:1015700010B502230122AA4890ED000AB7EEC00A76
:101580000021502001F0A1FD0323A84890ED000A9E
:10159000BCEEC00A10EE102A1421412001F027FDF4
:1015A000A34C0323012294ED000AB7EEC00A2821C0
:1015B000412001F08AFD0423012294ED010AB7EED7
:1015C000C00A3C21412001F080FD944A0021002006
:1015D00001F0B8FC944A1421002001F0B3FCB84A91
:1015E0002821002001F0AEFCB64A3C21002001F089
:1015F000A9FC4FF47A70D7490A68096891FBF0F1A9
:1016000000FB1120B0F5FA7F10DB0323012294EDDB
:10161000020AB7EEC00A5021412001F056FDDFF862
:10162000A4255021002001F08DFC05E0DFF8E02723
:101630005021412001F086FC10BD0000002309105C
:101640000C2309101823091024230910C824091099
:1016500068BF02287CA4032880B54FF47A70BD4986
:101660000A68096891FBF0F100FB1120B0F5FA7FE0
:1016700006DBDFF8F82A0021002001F063FC05E01A
:10168000DFF88C270021002001F05CFCDFF8E02A65
:101690000821002001F056FCDFF8D82A1021002094
:1016A00001F050FCDFF8D02A1821002001F04AFC9C
:1016B000DFF8C82A2021002001F044FCDFF8C02A0E
:1016C0002821002001F03EFCDFF8B82A302100205C
:1016D00001F038FCDFF8942A3821002001F032FCB8
:1016E00001BD00002AA5032880A40328D0240910E6
:1016F0002BA503283023091010B5DFF8704A22000B
:101700000021002001F01EFC4FF47A7091490A6814
:10171000096891FBF0F100FB1120B0F5FA7F06DBC0
:10172000DFF84C2A0821002001F00CFC05E0DFF86E
:10173000E0260821002001F005FCDFF8382A1021FE
:10174000002001F0FFFBDFF8302A1821002001F013
:10175000F9FBDFF8282A2021002001F0F3FBDFF855
:10176000202A2821002001F0EDFBDFF8182A302183
:10177000002001F0E7FB22003821002001F0E2FB0D
:1017800010BD00003C230910482309105423091000
:1017900010B5DFF8D84922000021002001F0D2FB6B
:1017A000DFF8CC290821002001F0CCFB4FF47A703F
:1017B00068490A68096891FBF0F100FB1120B0F557
:1017C000FA7F06DBDFF8AC291021002001F0BAFB1C
:1017D00005E0DFF83C261021002001F0B3FBDFF824
:1017E00098291821002001F0ADFBDFF89029202175
:1017F000002001F0A7FBDFF888292821002001F054
:10180000A1FBDFF880293021002001F09BFB2200A2
:101810003821002001F096FB10BD00006023091064
:1018200080A20328A02009106C230910A0A203287D
:10183000C0A2032810B5DFF834492200002100209F
:1018400001F080FBDFF828290821002001F07AFB55
:10185000DFF820291021002001F074FB4FF47A708A
:101860003C490A68096891FBF0F100FB1120B0F5D2
:10187000FA7F06DBDFF800291821002001F062FB67
:1018800005E0DFF88C251821002001F05BFBDFF874
:10189000EC282021002001F055FBDFF8E428282166
:1018A000002001F04FFBDFF8DC283021002001F0A0
:1018B00049FB22003821002001F044FB10BD00004C
:1018C000782309108423091010B5DFF8A0482200FE
:1018D0000021002001F036FBDFF8942808210020C9
:1018E00001F030FBDFF88C281021002001F02AFBEA
:1018F000DFF884281821002001F024FB4FF47A70CF
:1019000014490A68096891FBF0F100FB1120B0F559
:10191000FA7F06DBDFF864282021002001F012FBAB
:1019200005E0DFF8502B2021002001F00BFBDFF851
:1019300050282821002001F005FBDFF8482830213D
:10194000002001F0FFFA22003821002001F0FAFA0D
:1019500010BD00006CA4032810B5DFF81048220069
:101960000021002001F0EEFADFF804280821002011
:1019700001F0E8FADFF8FC271021002001F0E2FA7C
:10198000DFF8F4271821002001F0DCFADFF8EC275B
:101990002021002001F0D6FA4FF47A70DFF8401BC6
:1019A0000A68096891FBF0F100FB1120B0F5FA7F9D
:1019B00006DBDFF8CC272821002001F0C3FA05E080
:1019C000DFF8B02A2821002001F0BCFADFF8B427A4
:1019D0003021002001F0B6FA22003821002001F069
:1019E000B1FA10BD10B5DFF88447220000210020B5
:1019F00001F0A8FADFF878270821002001F0A2FA08
:101A0000DFF870271021002001F09CFADFF868272A
:101A10001821002001F096FADFF86027202100202D
:101A200001F090FADFF858272821002001F08AFA07
:101A30004FF47A70DFF8A81A0A68096891FBF0F190
:101A400000FB1120B0F5FA7F06DBDFF838273021E4
:101A5000002001F077FA05E0DFF8182A3021002095
:101A600001F070FA22003821002001F06BFA10BD5D
:101A700010B5DFF8F84622000021002001F062FADC
:101A8000DFF8EC260821002001F05CFADFF8E426FC
:101A90001021002001F056FADFF8DC261821002082
:101AA00001F050FADFF8D4262021002001F04AFA94
:101AB000DFF8CC262821002001F044FADFF8C42604
:101AC0003021002001F03EFA4FF47A70DFF8101A4E
:101AD0000A68096891FBF0F100FB1120B0F5FA7F6C
:101AE00005DB22003821002001F02CFA05E0DFF8A8
:101AF0006C2C3821002001F025FA10BD2DE9F041B1
:101B00000024DFF80C0B0178122902DB0078B0F119
:101B10001204DFF8002B0021002001F013FA022349
:101B20000222DFF8F40A90ED000AB7EEC00A0021A5
:101B3000182001F0CAFA02230222DFF8E00A90ED31
:101B4000000AB7EEC00A0021422001F0BEFA0025CB
:101B50002AE002233A00D2B23100C9B289B206208B
:101B600001F045FADFF8F88B022302223800C0B2F8
:101B700008EBC00090ED000AB7EEC00A3100C9B210
:101B800089B2182001F0A1FA02230222FFB208EB69
:101B9000C70090ED010AB7EEC00AF6B2310089B273
:101BA000422001F092FA6D1C2800C0B2122806DA19
:101BB0006E1CF6002F193800C0B26428C9DBBDE8DE
:101BC000F0810000902309102DE9F8430025DFF88B
:101BD000404A2078122802DB2078B0F11205DFF8A5
:101BE000342A0021002001F0ADF902230222DFF89F
:101BF000280A90ED000AB7EEC00A0021182001F073
:101C000064FA02230222DFF8140A90ED000AB7EE0C
:101C1000C00A0021422001F058FA00262BE00223DE
:101C20004246D2B23900C9B289B2062001F0DFF9CA
:101C3000DFF8009B022302224046C0B209EBC0003D
:101C400090ED000AB7EEC00A3900C9B289B2182077
:101C500001F03BFA022302225FFA88F809EBC80080
:101C600090ED010AB7EEC00AFFB2390089B24220F6
:101C700001F02BFA761C3000C0B2122807DA771C6C
:101C8000FF0016EB05084046C0B26428C7DB207889
:101C9000122801DA217800E01221C4A2C9B2C900D9
:101CA00089B2002001F04EF9BDE8F1839C230910B0
:101CB0002DE9F0410024DFF858090178122902DBF0
:101CC0000078B0F1120400252AE002233A00D2B2D3
:101CD0003100C9B289B2062001F089F9DFF8848A9F
:101CE000022302223800C0B208EBC00090ED000AC7
:101CF000B7EEC00A3100C9B289B2182001F0E5F987
:101D000002230222FFB208EBC70090ED010AB7EEF2
:101D1000C00AF6B2310089B2422001F0D6F96D1C3A
:101D20002800C0B2122806DA6E1CF6002F193800FF
:101D3000C0B26428C9DBBDE8F0812DE9F843002575
:101D4000DFF8CC482078122802DB2078B0F11205A9
:101D5000DFF8C0280021002001F0F4F8DFF8086A5D
:101D60000623012296ED080B0021182001F0ADF9A1
:101D70000623012296ED060B0021482001F0A5F96B
:101D8000002629E002234246D2B23900C9B289B204
:101D9000062001F02CF9DFF8D499062301224046F1
:101DA000C0B20001484490ED020B3900C9B289B2BB
:101DB000182001F08AF9062301225FFA88F85FEA09
:101DC000081809EB080090ED000BFFB2390089B24A
:101DD000482001F07AF9761C3000C0B2122807DAE8
:101DE000771CFF0016EB05084046C0B26428C9DB2B
:101DF0002078122801DA217800E012216BA2C9B202
:101E0000C90089B2002001F09DF8BDE8F18300000F
:101E1000A823091010B5DFF85049042322880021B7
:101E2000002001F0E4F80223A2780021282001F02C
:101E3000DEF80223E2780021502001F0D8F8DFF824
:101E400030290821002001F07DF80523227A08219D
:101E5000282001F0CCF88FA21021002001F072F8A8
:101E60000623042294ED060B1021282001F02DF901
:101E7000BBA21821002001F065F80623042294ED8E
:101E8000080B1821282001F020F9B6A220210020FB
:101E900001F058F80623042294ED0B0AB7EEC00AAD
:101EA0002021282001F011F9DFF8C828282100207E
:101EB00001F048F80623042294ED0C0AB7EEC00A9C
:101EC0002821282001F001F9DFF8AC28302100207A
:101ED00001F038F8052394F83C203021282001F047
:101EE00086F810BD2DE9F0410024DFF824070178C1
:101EF000122902DB0078B0F11204DFF81827002164
:101F0000002001F01FF802230222DFF80C0790EDF9
:101F1000000AB7EEC00A0021182001F0D6F802230B
:101F20000222DFF8F80690ED000AB7EEC00A0021A1
:101F3000422001F0CAF800252AE002233A00D2B27A
:101F40003100C9B289B2062001F051F8DFF82C88BF
:101F5000022302223800C0B208EBC00090ED000A54
:101F6000B7EEC00A3100C9B289B2182001F0ADF84D
:101F700002230222FFB208EBC70090ED010AB7EE80
:101F8000C00AF6B2310089B2422001F09EF86D1C01
:101F90002800C0B2122806DA6E1CF6002F1938008D
:101FA000C0B26428C9DBBDE8F08100002A0000004F
:101FB0002DE9F8430025DFF858462078122802DB87
:101FC0002078B0F11205DFF84C260021002000F047
:101FD000B9FF02230222DFF8400690ED000AB7EEB7
:101FE000C00A0021182001F070F802230222DFF855
:101FF0002C0690ED000AB7EEC00A0021422001F045
:1020000064F800262BE002234246D2B23900C9B25E
:1020100089B2062000F0EBFFDFF86497022302226A
:102020004046C0B209EBC00090ED000AB7EEC00A0E
:102030003900C9B289B2182001F047F80223022200
:102040005FFA88F809EBC80090ED010AB7EEC00A04
:10205000FFB2390089B2422001F037F8761C300017
:10206000C0B2122807DA771CFF0016EB05084046BD
:10207000C0B26428C7DB2078122801DA217800E09A
:10208000122139A2C9B2C90089B2002000F05AFF5A
:10209000BDE8F183453A00002DE9F0410024DFF866
:1020A00070050178122902DB0078B0F11204DFF824
:1020B00064250021002000F045FF02230222DFF802
:1020C000C40690ED000AB7EEC00A0021182000F007
:1020D000FCFF02230222DFF8B00690ED000AB7EE03
:1020E000C00A0021422000F0F0FF00252AE0022370
:1020F0003A00D2B23100C9B289B2062000F077FFAF
:10210000DFF88886022302223800C0B208EBC00044
:1021100090ED000AB7EEC00A3100C9B289B21820AA
:1021200000F0D3FF02230222FFB208EBC70090EDBC
:10213000010AB7EEC00AF6B2310089B2422000F0BF
:10214000C4FF6D1C2800C0B2122806DA6E1CF6000F
:102150002F193800C0B26428C9DBBDE8F081000047
:102160004E3A0000563A00002A000000B42309103D
:10217000C4210910D4210910D8240910E421091020
:10218000E0240910F42109102DE9F8432DED068B08
:1021900082B00400002C04D00D00280080B2022878
:1021A00000DA2AE194ED008A94ED000AD4ED018A68
:1021B000D4ED010A012044E0010089B204EBC10121
:1021C00091ED001AB4EE481AF1EE10FA05D50100AF
:1021D00089B204EBC10191ED008A010089B204EBE0
:1021E000C10191ED001AB4EE410AF1EE10FA05D5E5
:1021F000010089B204EBC10191ED000A010089B22E
:1022000004EBC10191ED011AB4EE681AF1EE10FA77
:1022100005D5010089B204EBC101D1ED018A0100AD
:1022200089B204EBC10191ED011AF4EE410AF1EE1D
:1022300010FA05D5010089B204EBC101D1ED010A04
:10224000401C01002A0089B292B29142B4D330EE10
:10225000480A70EEE80A9FEDA11AB4EE410AF1EEC9
:1022600010FA01D5B0EE410AF4EE410AF1EE10FA8F
:1022700001D5F0EE410ADFF818050088103801EEAC
:10228000100AB8EEC11ADFF80C653088103801EE7C
:10229000900AF8EEE11A81EE009A81EEA02AB4EEDF
:1022A000429AF1EE10FA01D4B0EE429A00EE491AC9
:1022B000B0EE000A81EE000AB2EE001A70EE019A4A
:1022C00040EEC91AB0EE000A81EE800AF2EE000A72
:1022D00030EE20AA00F07AFB002000215FF0000918
:1022E00054E0484680B2290089B2491E884249D14B
:1022F0004FF4FC62390089B2404680B200F0C8FB5E
:1023000040E04A4692B204EBC20292ED000A30EE7F
:10231000480AF0EE690A40EE090ABDEEE00A10EE46
:10232000108A328800EE102AB8EE400A4A4692B26D
:1023300004EBC202D2ED010A70EEE80AB0EE4A1ACE
:1023400000EE891A30EE410ABDEEC00A10EE107A96
:102350004A4692B2002A0AD04FF4784200923B00DB
:102360009BB2424692B289B280B200F0CFFB48469F
:1023700080B20028B5D11F22390089B2404680B210
:1023800000F086FB4046390019F101094A462B004E
:1023900092B29BB29A42B4D3DFF8FC432078002873
:1023A00006D1DFF8F8230021002000F0CBFD05E086
:1023B000DFF8EC230021002000F0C4FD2078012884
:1023C00015D1DFF8E0130878002806D1DFF8D8230C
:1023D0000021322000F0B6FD0FE0087801280CD172
:1023E000DFF8C8230021322000F0ACFD05E0DFF863
:1023F000C0230021322000F0A5FD02B0BDEC068B09
:10240000BDE8F18380B54FF47A7035490A680968F0
:1024100091FBF0F100FB1120B0F5FA7F06DBDFF84D
:1024200094230021002000F08DFD04E0CB4A002120
:10243000002000F087FDDFF880230821002000F055
:1024400081FDDFF878231021002000F07BFDDFF80C
:1024500070231821002000F075FDDFF8682320218B
:10246000002000F06FFDDFF860232821002000F03D
:1024700069FD01BD0422091080B5CE4A002100206B
:1024800000F060FD4FF47A7015490A68096891FB05
:10249000F0F100FB1120B0F5FA7F05DBC64A0821F8
:1024A000002000F04FFD04E0C84A0821002000F0A1
:1024B00049FDC24A1021002000F044FDC04A182105
:1024C000002000F03FFDBF4A2021002000F03AFD2F
:1024D000BD4A2821002000F035FD01BD6F12833A6E
:1024E0006CA4032880B5B34A0021002000F02AFD27
:1024F000B14A0821002000F025FD4FF47A70B4495C
:102500000A68096891FBF0F100FB1120B0F5FA7F31
:1025100005DBAA4A1021002000F014FD04E0AB4ABC
:102520001021002000F00EFDA54A1821002000F027
:1025300009FDA44A2021002000F004FDA24A282120
:10254000002000F0FFFC01BD80B59A4A0021002068
:1025500000F0F8FC984A0821002000F0F3FC974AAC
:102560001021002000F0EEFC4FF47A7098490A68C0
:10257000096891FBF0F100FB1120B0F5FA7F05DB53
:102580008F4A1821002000F0DDFC04E08F4A18215A
:10259000002000F0D7FC8B4A2021002000F0D2FC64
:1025A000894A2821002000F0CDFC01BD80B5814A78
:1025B0000021002000F0C6FC7F4A0821002000F026
:1025C000C1FC7E4A1021002000F0BCFC7C4A18218E
:1025D000002000F0B7FC4FF47A707D490A68096862
:1025E00091FBF0F100FB1120B0F5FA7F05DB754A95
:1025F0002021002000F0A6FC04E0744A20210020E5
:1026000000F0A0FC704A2821002000F09BFC01BDD6
:1026100030A50328E82409107CA4032880A40328FB
:1026200080B5644A0021002000F08CFC624A082139
:10263000002000F087FC614A1021002000F082FC9D
:102640005F4A1821002000F07DFC5E4A2021002016
:1026500000F078FC4FF47A705D490A68096891FBD4
:10266000F0F100FB1120B0F5FA7F05DB564A282176
:10267000002000F067FC04E0544A2821002000F00C
:1026800061FC01BD704738B5354C5248017889B2BC
:102690002000FFF779FD504D02232A780821002001
:1026A00000F0A5FC02230222287804EBC00090ED84
:1026B000000AB7EEC00A0821142000F006FD02232C
:1026C0000222287804EBC00090ED010AB7EEC00AA0
:1026D0000821502000F0F9FC31BD70477047704769
:1026E00038B52A4C3D48017889B22000FFF74CFDEF
:1026F000394D02232A780821002000F078FC0223BB
:102700000222287804EBC00090ED000AB7EEC00A60
:102710000821142000F0D9FC02230222287804EBBF
:10272000C00090ED010AB7EEC00A0821502000F069
:10273000CCFC31BD68850328F8B5002003908020CB
:102740000290A020019078200090BC23244A002110
:10275000002000F067FD05B000BD0000A8230910AF
:1027600088880328E8910328B0A10328E878032883
:10277000F0240910F824091000250910A88B03285B
:10278000C88E032894A4032898A403280895032836
:1027900090C0022892C0022832A5032808250910FB
:1027A0001025091033A50328C0230910CC230910D4
:1027B0009C230910D823091014220910242209107F
:1027C0002C21091018250910342209104021091064
:1027D0006CA4032820A5032831A5032824A50328D9
:1027E000C418032880B501000820DFF8202A1060F3
:1027F000C9B2012001F054FB0820DFF8201A08605C
:1028000001BD2DE9F047060015001F00DFF8008A22
:102810003000B8F8002080B2904201D2012000E0E0
:1028200000200C00DFF8EC99AF224946C0B202F05C
:10283000A9F8DFF8E4A92000BAF8001080B28842B5
:1028400001D2012000E00020B0224946C0B202F0CF
:1028500099F82800B8F8001080B2884201D201200F
:1028600000E00020B1224946C0B202F08BF83800E7
:10287000BAF8001080B2884201D2012000E00020A6
:10288000B2224946C0B202F07DF8DFF89409007820
:102890000028012803D9801E01282FD95CE02A20B6
:1028A000FFF7A0FF0021012001F0FAFAB61C310069
:1028B000C9B2012001F0F4FA0021012001F0F0FA80
:1028C000AD1C2900C9B2012001F0EAFA2B20FFF764
:1028D00089FF0021012001F0E3FA641C2100C9B244
:1028E000012001F0DDFA0021012001F0D9FA7F1C5E
:1028F0003900C9B2012001F0D3FA2DE02A20FFF7F8
:1029000071FF0021012001F0CBFA761C3100C9B221
:10291000012001F0C5FA0021012001F0C1FA6D1C6F
:102920002900C9B2012001F0BBFA2B20FFF75AFFA2
:102930000021012001F0B4FAA41C2100C9B2012039
:1029400001F0AEFA0021012001F0AAFABF1C390003
:10295000C9B2012001F0A4FA2C20FFF743FFBDE823
:10296000F08700B585B0684602F03AF80120ADF86E
:102970000000DFF89C080088ADF80200DFF8980836
:102980000088ADF80400DFF8F8090078002803D0CB
:1029900002280FD007D30DE006208DF8060008208E
:1029A0008DF8070006E008208DF8060010208DF84D
:1029B0000700FFE70FF28D5003900FF21100049013
:1029C000684602F01DF805B000BD0000F8B5DFF85C
:1029D00040482088400002F067F8050000200020F1
:1029E0000820DFF8A0190860DFF82C683088431E43
:1029F0009BB22088421E92B200210020FFF701FF07
:102A0000002007E0DFF880190988020092B225F85B
:102A10001210401C0100228889B29142F2D3002793
:102A200005E022882900012001F0E4FA7F1C38002B
:102A3000318880B28842F4D30820DFF8501908604A
:102A4000280002F03AF8F1BDDFF8D41708700878D2
:102A50000028012803D9801E012809D910E0802010
:102A6000DFF8AC170880A020DFF8AC17088007E07B
:102A7000A020DFF89C1708808020DFF89C170880D2
:102A80007047DFF80C291080DFF8FC0801807047E0
:102A9000F8B504000D0016002000DFF8741709884F
:102AA00080B2884201D2012000E00020DFF8647784
:102AB00040F273123900C0B201F064FF2800DFF861
:102AC0005817098880B2884201D2012000E0002016
:102AD0004FF4BA723900C0B201F054FF0820DFF899
:102AE000A41808602B009BB2220092B2290089B280
:102AF000200080B2FFF785FE310089B2012001F08D
:102B000024FA0820DFF884180860F1BD2DE9F047A9
:102B10002DED028B060015001F00DFF8F486300053
:102B2000B8F8002080B2904201D2012000E00020DD
:102B30000C00DFF8E09640F28B124946C0B201F07B
:102B400021FFDFF8D4A62000BAF8001080B2884236
:102B500001D2012000E000204FF4C6724946C0B205
:102B600001F010FF2800B8F8001080B2884201D2AE
:102B7000012000E0002040F28D124946C0B201F071
:102B800001FF3800BAF8001080B2884201D201205B
:102B900000E000204FF4C7724946C0B201F0F2FED7
:102BA0003000290080B289B2884202D25FF0010968
:102BB00001E05FF0FF392000390080B289B288421D
:102BC00002D25FF0010A01E05FF0FF3A9FED5F0A79
:102BD0009FED5E0ADDF828803000290080B289B2BE
:102BE000884238D0210089B2380080B2091A00EE3C
:102BF000101AB8EEC00A310089B2280080B2091A52
:102C000000EE901AF8EEE00A80EE208A200080B2F2
:102C100000EE100AF8EE408A300080B200EE100A92
:102C2000B8EE400A40EE488A310089B2280080B2EE
:102C3000091A00291ED4310089B2280080B2091A6D
:102C40001DE0424692B2210089B2300080B2FFF707
:102C50001FFF1AEB04042000390080B289B28842B9
:102C6000EFD1424692B2210089B2300080B2FFF724
:102C70000FFF66E0290089B2300080B2091A2200F5
:102C800092B2380080B2121A002A05D4220092B201
:102C9000380080B2121A04E03A0092B2200080B2EA
:102CA000121A91423FDA17E0424692B2210089B2ED
:102CB000300080B2FFF7ECFE1AEB0404200080B273
:102CC00000EE100AB8EE400A30EE680A80EE080AFC
:102CD000BDEEC00A10EE106A2000390080B289B241
:102CE0008842E1D1424692B2210089B2300080B2DE
:102CF000FFF7CEFE25E0424692B2210089B23000B5
:102D000080B2FFF7C5FE19EB0606300080B200EE78
:102D1000100AB8EE400AF0EE680A40EE080ABDEE6E
:102D2000E00A10EE104A3000290080B289B28842D1
:102D3000E1D1424692B2210089B2300080B2FFF761
:102D4000A7FEBDEC028BBDE8F0870000000000008C
:102D5000F8B5D8B005000E0014002800DFF8B01454
:102D6000098880B2884201D2012000E00020DFF80B
:102D7000A47440F2CB123900C0B201F003FE30005F
:102D8000DFF89414098880B2884201D2012000E063
:102D900000204FF4E6723900C0B201F0F3FD0020CC
:102DA00000200820DFF8DC150860DFF8D405007883
:102DB000002804D0022800F0BF8046D3BCE0F31DF9
:102DC0009BB26A1D92B2310089B2280080B2FFF72F
:102DD00018FD002000E0401C0100C9B206292EDACF
:102DE0000621DFF8B0252300DBB24B431A44030071
:102DF000DBB21A4412F8C02C00230BE040AD1E00D9
:102E0000F6B24E4356FA80F6DFF87C753F8825F817
:102E1000167010E01D00EDB2082DDCDAD507EDD5F7
:102E200040AD1E00F6B24E4356FA80F6DFF86075EC
:102E30003F8825F81670D2B252085B1CEAE73022B0
:102E400040A9012001F0D6F876E016F10F039BB2FD
:102E5000EA1D92B2310089B2280080B2FFF7D1FC9E
:102E6000002000E0401C0100C9B208295EDADFF84A
:102E700028252100C9B2090111440300DBB219441D
:102E8000B1F5007109782300DBB21B011A4403007D
:102E9000DBB21A44B2F5FC72127800231BE06D46D7
:102EA0001E00F6B2F60056FA80F6DFF8DC743F88B2
:102EB00025F816700CE0CD07F1D56D461E00F6B270
:102EC000F60056FA80F6DFF8C8743F8825F81670C9
:102ED000C9B249085B1C1D00EDB2082DEBDB0021D7
:102EE0000DE06B460D00EDB2ED0055FA80F503EBF9
:102EF0004503DFF894542D88A3F8805012E00B00AE
:102F0000DBB2082BAEDAD307EBD56B460D00EDB282
:102F1000ED0055FA80F503EB4503DFF874542D8876
:102F2000A3F88050D2B25208491CE8E780226946D3
:102F3000012001F05FF8FFE70820DFF85014086077
:102F400059B0F0BDF8B504000E0015002000DFF800
:102F5000C012098880B2884201D2012000E000201E
:102F6000DFF8B07240F222223900C0B201F00AFD4F
:102F70003000DFF8A412098880B2884201D2012013
:102F800000E0002040F223223900C0B201F0FAFC38
:102F900000270EE00CE0380080B22A5C310089B2D4
:102FA000380080B2C00010FA84F080B2FFF7D0FE83
:102FB0007F1C380080B2285C002817D0DFF8DC03C3
:102FC0000078002803D00228E4D0E4D3F0E73800EA
:102FD00080B22A5C310089B23B009BB20620434399
:102FE00013FA84F080B2FFF7B3FEE1E7F1BD2DE9FB
:102FF000FE43070016001D003800854A128880B283
:10300000904201D2012000E000200C00DFF8048291
:1030100040F267224146C0B201F0B4FC2000DFF864
:10302000DC16098880B2884201D2012000E000202D
:103030004FF41A724146C0B201F0A4FC2800C0B29D
:10304000002801D0012000E0002040F26922414622
:10305000C0B201F097FC2800C0B20B2801DA0120B1
:1030600000E0002040F26A224146C0B201F08AFC32
:103070005FF001080C210022E946484601F05EFDA0
:103080002900C9B22022E946484601F057FD280030
:10309000C0B20A280CDA03E00A2000FB08F86D1E13
:1030A0002800C0B20028F7D1B6FBF8F008FB106684
:1030B0003100684601F0A5FD6A46210089B238005A
:1030C00080B2FFF73FFFBDE8F7832DE9F0412DED1A
:1030D000028B86B00500B0EE408B16001F00280062
:1030E0004B4A128880B2904201D2012000E00020B9
:1030F0000C00DFF8208140F291224146C0B201F07D
:1031000041FC2000DFF8F415098880B2884201D222
:10311000012000E0002040F292224146C0B201F0BE
:1031200031FC3000C0B2002801D0012000E00020B6
:1031300040F293224146C0B201F024FC3000C0B2FC
:10314000092801DA012000E000204FF425724146F1
:10315000C0B201F017FC3800C0B2002801D0012035
:1031600000E0002040F295224146C0B201F00AFC86
:103170003800C0B2072801DA012000E0002040F248
:1031800096224146C0B201F0FDFBB7EE000B1121C3
:103190000022E846404601F0D1FC3800C0B250FAA7
:1031A00086F1891C2022E846404601F0C7FC04E075
:1031B000B2EE042B20EE020B761E3000C0B20028C7
:1031C000F6D1BDEEC81B11EE100ABDEEC01B11EE0C
:1031D000101A90FBF1F001EE100AB8EEC11B01EEDF
:1031E000408B3900C9B2B0EE480B684601F09EFD35
:1031F0006A46210089B2280080B2FFF7A3FE06B01C
:10320000BDEC028BBDE8F08100000000040B3140F2
:1032100090C002288C1C091092C00228080B314073
:1032200042A503282DE9F84F804614009A46DFF89E
:10323000D0944046B9F8002080B2904201D20120DB
:1032400000E000200F00DFF8BCB440F2F322594642
:10325000C0B201F097FB3800DFF8A014098880B2F3
:10326000884201D2012000E000204FF43D7259460F
:10327000C0B201F087FB002C01D0012000E000204B
:103280000C9D0B9E40F2F5225946C0B201F07AFB2C
:103290000020002000200020B9F80000400001F0CC
:1032A00003FC8146082037490860E819431E9BB299
:1032B00016EB0800421E92B2390089B2404680B235
:1032C000FFF79FFA5FF0000B0A9FDDF8348007E0FC
:1032D000320092B24946012000F08CFE1BF1010B36
:1032E000280080B2834541D2380080B200FB0BF049
:1032F000290089B2B0FBF1F1504680B2414321442C
:1033000000220EE04FF6FF7029F8120008E0434655
:10331000DBB280B29BB29842F4D2002029F81200AE
:10332000521C300080B28242D2D2504680B200FBA2
:1033300002F033009BB2B0FBF3F0085C4346DBB213
:10334000002BE4D10300DBB2DB08DBB2DB028446F6
:103350005FFA8CFC5FEA9C0C5FFA8CFC53EA4C131E
:10336000C0F3C400034329F81230D9E70820DFF87E
:1033700098130860484601F0A0FBBDE8F18F0000FB
:1033800043A503280406314096C0022808063140B0
:1033900094C002286410091084F9081043A503287A
:1033A0001FB5082002900420019001200090012305
:1033B000D94A0021012000F0E9FF03230022012166
:1033C000B32001F042FE032300220121B42001F0CA
:1033D0003CFE032301220121632001F036FE03237A
:1033E00001220121582001F030FECC4C2078FFF75B
:1033F0002BFBC7480188C7480088FFF742FB102015
:10340000C74908600A2000F041FA1020C549086049
:10341000782000F03BFA0820BC4908601120FFF733
:10342000E1F9782000F032FAB120FFF7DBF9012151
:10343000012000F035FD2C21012000F031FD2D216F
:10344000012000F02DFDB220FFF7CCF90121012071
:1034500000F026FD2C21012000F022FD2D2101206D
:1034600000F01EFDB320FFF7BDF90121012000F09F
:1034700017FD2C21012000F013FD2D21012000F06B
:103480000FFD0121012000F00BFD2C21012000F097
:1034900007FD2D21012000F003FDB420FFF7A2F964
:1034A0000721012000F0FCFCC020FFF79BF9A221BE
:1034B000012000F0F5FC0221012000F0F1FC842144
:1034C000012000F0EDFCC120FFF78CF9C52101209F
:1034D00000F0E6FCC220FFF785F90A21012000F088
:1034E000DFFC0021012000F0DBFCC320FFF77AF9AC
:1034F0008A21012000F0D4FC2A21012000F0D0FC18
:10350000C420FFF76FF98A21012000F0C9FCEE21E9
:10351000012000F0C5FCC520FFF764F90E21012051
:1035200000F0BEFC3620FFF75DF92078002805D0BA
:1035300002280DD007D303280FD012E0C0210120AC
:1035400000F0AEFC0DE00021012000F0A9FC08E035
:10355000A021012000F0A4FC03E06021012000F084
:103560009FFCE020FFF73EF90F21012000F098FCBE
:103570001A21012000F094FC0F21012000F090FCA2
:103580001821012000F08CFC2F21012000F088FC84
:103590002821012000F084FC2021012000F080FC83
:1035A0002221012000F07CFC1F21012000F078FC8A
:1035B0001B21012000F074FC2321012000F070FC8D
:1035C0003721012000F06CFC0021012000F068FC94
:1035D0000721012000F064FC0221012000F060FCC2
:1035E0001021012000F05CFCE120FFF7FBF80F2127
:1035F000012000F055FC1B21012000F051FC0F219F
:10360000012000F04DFC1721012000F049FC33217E
:10361000012000F045FC2C21012000F041FC292173
:10362000012000F03DFC2E21012000F039FC30216A
:10363000012000F035FC3021012000F031FC39215F
:10364000012000F02DFC3F21012000F029FC002189
:10365000012000F025FC0721012000F021FC0321BE
:10366000012000F01DFC1021012000F019FC2A208F
:10367000FFF7B8F80021012000F012FC0221012020
:1036800000F00EFC0021012000F00AFC8221012044
:1036900000F006FC2B20FFF7A5F80021012000F028
:1036A000FFFB0321012000F0FBFB0021012000F0C3
:1036B000F7FB8321012000F0F3FBF020FFF792F8E5
:1036C0000121012000F0ECFBF620FFF78BF8002130
:1036D000012000F0E5FB3A20FFF784F805210120E6
:1036E00000F0DEFB2920FFF77DF80820064908607E
:1036F000FFF76CF9FFF735F91FBD000092C00228F3
:1037000090C002288C1C0910080631400406314084
:1037100096C0022894C0022880C3C90142A503288C
:10372000040B3140080B3140022801D301200FE087
:103730000B00DBB2042B01DB012009E0954B03EB0E
:103740008000C9B2405C824201D3012000E0002029
:103750007047F8B506000F0015001C00022E01D3BB
:1037600001201CE02A003900C9B23000FFF7DCFF5D
:10377000012801D1012012E03800C0B2002811D187
:10378000B4F5807F0CD284487603304400EB85008A
:1037900010F58050016864F30F2101600020F2BD34
:1037A0000120FCE7FFB2012F10D1B4F5803F0BD20E
:1037B00079487603304400EB850010F5A05001688D
:1037C00064F317210160E9E70120E8E70120E6E75B
:1037D00000B20012C0B27047F8B505000E00170025
:1037E000280000B2FFF7F4FF04002000C0B2022856
:1037F00001D3012023E03A003100C9B22000C0B259
:10380000FFF792FF012801D1012018E06249200052
:10381000C0B2400308442A00D2B200EB8200D0F8C4
:10382000000CF6B266F3092067F30700E4B2640304
:103830002144EDB201EB8501C1F8000C0020F2BD7E
:1038400070B504000D001600022C01D301201CE00D
:1038500032002900C9B22000FFF766FF012801D11C
:10386000012012E04C496003085850F0004050F02D
:10387000407050F47F00EDB265F3092066F3070055
:103880006203885064030859002070BDF8B5040035
:103890004FF4FA504443414D414E00212878C00175
:1038A000304401F0E3FC14E02878C001304401F01A
:1038B000DFFCB842F8D33B4F3C192878C0013044B4
:1038C00001F0D6FC3F1839002878C001304401F0DF
:1038D000CDFC4CF25137BC42E6D22878C0013044CE
:1038E00001F0C6FC8442F8D2F1BD38B594B0502145
:1038F00000226C46200001F021F92B4C002201210E
:10390000B4F90000FFF768FFB4F90000FFF760FFAB
:10391000092300220121C0B2FFF71BFFB4F9000008
:10392000FFF756FF00220121C0B2FFF789FF5FF0C9
:10393000FF30009000208DF8040000208DF8050075
:1039400000208DF8060000208DF8080003208DF877
:1039500044000120129001208DF807000F4C104DFB
:1039600069462078C001284401F0B6FB2078C001E8
:10397000284401F071FC00212078C001284401F0A6
:1039800075FC2078C001284401F082FC15B030BDE0
:1039900000000000A824091000000440A3C0022871
:1039A00000005940B03CFFFF98C00228D0F808033F
:1039B000C005C00D704710F541710A6852F480329D
:1039C0000A6010F541710A6832F480320A60D0F85A
:1039D00004037047C0F840127047D0F80802C005D1
:1039E000C00D7047D0F80802C0F3C030704738B53A
:1039F00005002800FFF7F1FF04002800FFF7F2FFA1
:103A00000419002C01D1012000E00020C0B232BD19
:103A10000068C0F38130002801D1802000E0402000
:103A20007047016851F00041016070472030026822
:103A300061F39B620260704780B5FFF7B7FF02BD7C
:103A400080B5FFF7B8FF01BD022801D3012010E0C7
:103A50000B00DBB2042B01DB01200AE0DFF8283782
:103A600003EB8000C9B2405C824201D3012000E038
:103A700000207047F8B504000F0015001E00022C4E
:103A800001D301202AE02A003900C9B22000FFF743
:103A9000DBFF012801D1012020E006983900C9B2DE
:103AA00002291ED1B6F5803F19D2202817D24FF433
:103AB000C052DFF8D81663030B4403EB85031344AD
:103AC0001F6866F317271F606403214401EB85011B
:103AD00011440A6860F3C7020A600020F2BD0120A9
:103AE000FCE7FFB2032F1FD1B6F1807F1AD2202846
:103AF00018D24FF4E052DFF8941663030B4403EB43
:103B0000850313441F6807F0FF0757EA06271F6065
:103B10006403214401EB850111440A6860F3C70284
:103B20000A60DAE70120D9E70120D7E700B20012E6
:103B3000C0B27047F8B505000E001700280000B2AB
:103B4000FFF7F4FF04002000C0B2022801D30120D7
:103B500024E03A003100C9B22000C0B2FFF774FF80
:103B6000012801D1012019E0DFF820162000C0B2A1
:103B7000400308442A00D2B200EB8200D0F8000CC7
:103B8000F6B266F3092067F30700E4B26403214448
:103B9000EDB201EB8501C1F8000C0020F2BD70B55B
:103BA00004000D001600022C01D301201DE032009C
:103BB0002900C9B22000FFF747FF012801D10120E9
:103BC00013E0DFF8C8156003085850F0004050F0CB
:103BD000407050F47F00EDB265F3092066F30700F2
:103BE0006203885064030859002070BD0100C020A2
:103BF000C9B2002905D0022907D004D3032906D071
:103C000006E0122004E0622002E07A2000E01A20A0
:103C1000C0B270470100C020C9B2002905D00229F6
:103C200007D004D3032906D006E0112004E0612068
:103C300002E0792000E01920C0B270470100C020E6
:103C4000C9B2002905D0022907D004D3032906D020
:103C500006E0102004E0602002E0782000E0182058
:103C6000C0B270470100C020C9B200290BD00229A0
:103C70000DD00AD304290ED00BD306290FD00CD3B4
:103C800007290ED00EE013200CE014200AE0632078
:103C900008E0642006E07B2004E0292002E01B20ED
:103CA00000E01C20C0B2704701000020C9B200290A
:103CB00005D0022907D004D3032906D006E013203B
:103CC00004E0132002E0132000E01320C0B270478C
:103CD00001000020C9B2002905D0022907D004D371
:103CE000032906D006E0132004E0132002E013208D
:103CF00000E01320C0B2704701000020C9B20029C3
:103D000005D0022907D004D3032906D006E01320EA
:103D100004E0132002E0132000E01320C0B270473B
:103D200001000020C9B200290BD002290DD00AD30E
:103D300004290ED00BD306290FD00CD307290ED09F
:103D40000EE013200CE013200AE0132008E01320FB
:103D500006E0132004E0132002E0132000E013200B
:103D6000C0B27047C9B2082902D0102946D096E0E7
:103D7000DFF808160200D2B251F82220126832F49D
:103D800040420300DBB251F823301A600200D2B285
:103D900051F82220D2F80022520952010300DBB26E
:103DA00051F82330C3F800220200D2B251F8222089
:103DB000D2F8002252F007020300DBB251F82330A0
:103DC000C3F800220200D2B251F82220D2F8002318
:103DD000520952010300DBB251F82330C3F800232B
:103DE0000200D2B251F82220D2F8002352F007028A
:103DF000C0B251F82000C0F8002350E0DFF87C1575
:103E00000200D2B251F82220126832F4404203007C
:103E1000DBB251F823301A600200D2B251F82220EE
:103E2000126852F480420300DBB251F823301A606A
:103E30000200D2B251F82220D2F8002252095201D7
:103E40000300DBB251F82330C3F800220200D2B2E3
:103E500051F82220D2F8002252F00F020300DBB208
:103E600051F82330C3F800220200D2B251F82220C8
:103E7000D2F80023520952010300DBB251F823307B
:103E8000C3F800230200D2B251F82220D2F8002356
:103E900052F00F02C0B251F82000C0F80023704762
:103EA000F8B504000E0008212000C0B2FFF75AFF49
:103EB000DFF8CC542000C0B2285C08280FD02000C6
:103EC000C0B2285CC010DFF8BC1411EBC011012097
:103ED0002200D2B2AA5C12F0070290400860DFF81C
:103EE0009C74F6B231002000C0B257F82000FFF7F2
:103EF00071FD2000C0B257F82000FFF789FD0600D1
:103F00002000C0B257F82000FFF767FD8642F0D0CE
:103F10002000C0B257F82000FFF769FD0028F7D055
:103F20002000C0B2285C08280ED02000C0B2285C57
:103F3000C010DFF8541411EBC0110120E4B22A5D67
:103F400012F0070290400860F1BDF8B504000E00C1
:103F500010212000C0B2FFF705FFDFF82454200035
:103F6000C0B2285C08280FD02000C0B2285CC01066
:103F7000DFF8101411EBC01101202200D2B2AA5CAC
:103F800012F0070290400860DFF8F073B6B231001B
:103F90002000C0B257F82000FFF71CFD2000C0B27F
:103FA00057F82000FFF734FD06002000C0B257F894
:103FB0002000FFF712FD8642F0D02000C0B257F873
:103FC0002000FFF714FD0028F7D02000C0B2285CC5
:103FD00008280ED02000C0B2285CC010DFF8A8135B
:103FE00011EBC0110120E4B22A5D12F007029040EB
:103FF0000860F1BD2DE9F84307000D001400102101
:104000003800C0B2FFF7AEFEDFF874633800C0B20C
:10401000305C08280FD03800C0B2305CC010DFF828
:10402000641311EBC01101203A00D2B2B25C12F05D
:10403000070290400860DFF8448329883800C0B246
:1040400058F82000FFF7C6FCAD1C3800C0B258F885
:104050002000FFF7DDFC81463800C0B258F8200090
:10406000FFF7BBFC8145F0D0641E002CE3D1380083
:10407000C0B258F82000FFF7BAFC0028F7D038008B
:10408000C0B2305C08280ED03800C0B2305CC0101E
:10409000DFF8F41211EBC0110120FFB2F25D12F053
:1040A000070290400860BDE8F1832DE9F04104006B
:1040B0000F00160008212000C0B2FFF753FEDFF802
:1040C000C0522000C0B2285C08280FD02000C0B227
:1040D000285CC010DFF8AC1211EBC01101202200E7
:1040E000D2B2AA5C12F0070290400860DFF88C821E
:1040F000FFB239002000C0B258F82000FFF76AFC78
:104100002000C0B258F82000FFF782FC0700200012
:10411000C0B258F82000FFF760FC8742F0D0F6B23A
:1041200031002000C0B258F82000FFF753FC2000F7
:10413000C0B258F82000FFF76BFC06002000C0B2A8
:1041400058F82000FFF749FC8642F0D02000C0B2AA
:1041500058F82000FFF74BFC0028F7D02000C0B231
:10416000285C08280ED02000C0B2285CC010DFF800
:10417000181211EBC0110120E4B22A5D12F00702FF
:1041800090400860BDE8F081A824091000000440B8
:10419000F8B504000D00002008212000C0B2FFF790
:1041A000E1FD774E2000C0B2305C08280ED0200020
:1041B000C0B2305CC010734911EBC0110120220065
:1041C000D2B2B25C12F00702904008606B4F200040
:1041D000C0B257F82000FFF72FFC002805D02000C0
:1041E000C0B257F82000FFF72BFCEDB229002000E9
:1041F000C0B257F82000FFF7EDFB2000C0B257F81F
:104200002000FFF719FC0028F7D02000C0B257F8B3
:104210002000FFF715FC00212000C0B257F8200055
:10422000FFF7D8FB2000C0B257F82000FFF7DFFBF4
:104230000028F7D02000C0B257F82000FFF7FCFBA1
:104240000028F7D02000C0B257F82000D0F8400373
:104250002100C9B2715C08290DD02100C9B2715C7E
:10426000C910494A12EBC1120121E4B2335D13F0C7
:10427000070399401160C0B2F2BD2DE9F8438046B2
:104280000D0016001C0008214046C0B2FFF76AFD71
:104290003B4F4046C0B2385C08280ED04046C0B202
:1042A000385CC010374911EBC01101204246D2B230
:1042B000BA5C12F0070290400860DFF8C0904046F8
:1042C000C0B259F82000FFF7B7FB002805D04046E0
:1042D000C0B259F82000FFF7B3FBEDB22900404609
:1042E000C0B259F82000FFF775FB4046C0B259F83C
:1042F0002000FFF7A1FB0028F7D04046C0B259F8D4
:104300002000FFF79DFB00214046C0B259F8200075
:10431000FFF760FB4046C0B259F82000FFF767FB8B
:104320000028F7D04046C0B259F82000FFF784FBC0
:104330000028F7D04046C0B259F82000D0F840031A
:104340003070761C641E002CDDD14046C0B2385C53
:1043500008280FD04046C0B2385CC0100A4911EBA3
:10436000C01101205FFA88F817F8082012F0070240
:1043700090400860BDE8F1830000000040C00228C2
:10438000E0A4032804003140080031402DE9F84F33
:104390002DED028B9EB006000F009946042080B2DE
:1043A00002FB00F2A848B0FBF2F8A74802FB180095
:1043B00000EE100AB8EE400B01EE102AB8EE411BD9
:1043C00080EE010BBFEEED0B10EE100B08EE100AA5
:1043D0003421002201AC200000F0B0FB3C2100227F
:1043E0000EAC200000F0AAFB30004946C0B2C9B2B2
:1043F000884201D1012000E000202A9DDFF84CA274
:104400004FF470725146C0B200F0BCFA4846290021
:10441000C0B2C9B2884201D1012000E000202B9C2B
:1044200040F2C1325146C0B200F0ACFA0620029010
:104430002800C0B2FFF74CFC8DF80C002800C0B279
:10444000FFF7E8FB82465FF0080B2800C0B2FFF7D9
:10445000E1FB7F4D01AA9AFBFBF10BFB11AA514630
:10446000C0B2C010C001284400F0A3FF0620029093
:104470004846C0B2FFF718FC8DF80C004846C0B2A1
:10448000FFF7B4FB82465FF0080B4846C0B2FFF767
:10449000ADFB01AA9AFBFBF10BFB11AA5146C0B27E
:1044A000C010C001284400F084FF2000C0B20428DE
:1044B0001ED0082002902000C0B2FFF71DFC8DF82E
:1044C0000C002000C0B2FFF7B9FB81465FF0080A7C
:1044D0002000C0B2FFF7B2FB01AA99FBFAF10AFB78
:1044E00011994946C0B2C010C001284400F061FFD4
:1044F0002C9C2000C0B208281ED00620029020006C
:10450000C0B2FFF70DFC8DF80C002000C0B2FFF721
:10451000A9FB81465FF0080A2000C0B2FFF7A2FBAA
:1045200001AA99FBFAF10AFB11994946C0B2C010E1
:10453000C001284400F03DFF3000C0B2032803D280
:104540003000C0B2401C00E000203200D2B2D21DC8
:10455000032110F58F7000B2FFF7ECFA3000C0B203
:10456000032803D23000C0B2401C00E0002010F548
:104570008F7000B2FFF7DAFA8DED008AB8F101080A
:1045800043463200D2B2D21D0321C0B2FFF772FA05
:104590003000C0B2032803D23000C0B2401C00E09B
:1045A000002010F58F7000B2FFF7C0FA3200D2B2CF
:1045B000D21D0321C0B2FFF7F2FAFFB2002F05D0DF
:1045C000022F09D005D3032F09D00AE00020109054
:1045D00007E00120109004E00220109001E0032089
:1045E000109001200E9000200F90042011900820C0
:1045F00012900820139001208DF8500001208DF8B2
:104600005300104D00220EA93000C0B255F8200012
:1046100000F00EFF00213000C0B255F82000FFF777
:1046200005FA3000C0B255F82000FFF7FAF9044847
:10463000F6B284551EB0BDEC028BBDE8F18F0000D0
:10464000E0A4032840C0022800B4C404101E0910CE
:104650000000314082B00020019000200090002036
:10466000019009E00098401C00900098B0F5005FB0
:10467000F8D30198401C01900198B0F5805F02D2F8
:1046800000200090F1E702B0704780B501000020E3
:1046900001F09CFA01BD2DE9F043ADF5137D070053
:1046A000884616001C000020ADF802000020ADF87E
:1046B0000000002002900020ADF804000020ADF8BA
:1046C0000600404601F01AFE0290DFF8A053288849
:1046D000002801D028698047DFF89403007800287B
:1046E00000F033812888002800F01181BDF9060010
:1046F000411CADF806103A00010089B20020EB68B9
:1047000098474746404601F0F9FD02906888A9792C
:1047100090FBF1F0ADF804003800471C0078002849
:10472000FAD10020ADF800000EE07F1E38782F2867
:1047300002D038785C2804D1BDF80000401CADF8E8
:1047400000000298401E0290BDF80000022802DA24
:1047500002980028E9D50298002806D47A1CDFF8D0
:10476000141353A801F0E6FD0EE0BDF80000002888
:1047700005D13A00C04953A801F0DCFD04E03A003D
:10478000BC4953A801F0D6FD0020ADF8020042E07C
:10479000BDF80010BDF80020BDF8023053AF9BB249
:1047A000BDF90400434313FA82F0385C43AA89B28E
:1047B0005054BDF80000401CADF80000BDF80000EA
:1047C00080B2BDF9041088420EDA53A801F096FDBC
:1047D000BDF80020BDF802309BB2BDF904104B4378
:1047E00013FA82F18842D3D2002043A9BDF80020F9
:1047F0008854BDF90600411CADF8061043AAE979BA
:1048000011FB00F189B20020EB689847BDF8020067
:10481000401CADF80200BDF8027053A801F06EFD17
:10482000BDF90410B0FBF1F0401CBFB2874203D2C7
:104830000020ADF80000C1E73200904953A801F014
:1048400079FDBDF90600411CADF8061053AAE979BF
:1048500011FB00F189B20020EB689847002C74D05E
:104860000020ADF8020041E0BDF80010BDF80020C6
:10487000BDF802309BB2BDF90400434313FA82F045
:10488000205C43AA89B25054BDF80000401CADF82A
:104890000000BDF8000080B2BDF9041088420EDAB5
:1048A000200001F02BFDBDF80020BDF802309BB2C6
:1048B000BDF904104B4313FA82F18842D4D2002090
:1048C00043A9BDF800208854BDF90600411CADF88D
:1048D000061043AAE97911FB00F189B20020EB68C8
:1048E0009847BDF80200401CADF80200BDF8026018
:1048F000200001F003FDBDF90410B0FBF1F0401CF5
:10490000B6B2864221D20020ADF80000C1E74FF4D4
:10491000807100220DF10C09484600F00FF93800B3
:10492000A9688847002C07D00094330042465449B8
:1049300003A801F0FFFC05E033004246514903A8FB
:1049400001F0F8FC03A8A96888470DF5137DBDE8C0
:10495000F08310B546480078002809D04B4C210060
:10496000002001F041F901222100474801F067FDD4
:1049700010BD10B514002200D2B2002001F017F9CA
:10498000200010BD38B50C001500C0B2002803D1BE
:104990003F480078002800D131BD3E490878002802
:1049A00000D0FEE70878401C087001F051FF00239A
:1049B0002A0021003848FFF76EFEFFF74BFEF6E7AE
:1049C00010B514001A00C0B2002808D12848007899
:1049D000002804D00B0021003048FFF75CFE10BD1A
:1049E000002101804FF6FF7141808180FF2181719C
:1049F000C171002181600021C16000210161704707
:104A00001A4902880A8042884A8082888A8082798C
:104A10008A71C279CA7182688A60C268CA60006994
:104A20000861012012490870704700B585B06846DA
:104A3000FFF7D6FF1A4802906846FFF7E1FF05B07E
:104A400000BD80B5FFF7F1FF002300225FF4E131E4
:104A5000002001F053FB4023124A00210A4801F0D4
:104A60008EFE0121002001F087F901BDE8A3032893
:104A700037A50328E423091044220910F023091064
:104A800014200910E82009108CA3032838A5032856
:104A9000A2C0022839A5032854220910FC230910BA
:104AA0008B46081040A2032810B501F0F9FE04005F
:104AB00008BF01F093FF204610BD01F092BFF0B493
:104AC0000246106895681318506803EB5004C0073D
:104AD00048BF4D44A3422DD013F8016B16F00300DC
:104AE00004BF13F8010BC01C31090F2907D113F8BB
:104AF000011B0F3103E013F8017B05F8017B401E19
:104B0000F9D10029E6D013F8010BC6F38106032E74
:104B100008BF13F8016B00EB062040422844002632
:104B2000B71E8F421EBF10F8017B05F8017B761C73
:104B3000F6D1CFE7F0BC02F10C00704762F30F2210
:104B400062F31F42401810F0030308D0C91A1FD3A4
:104B5000DB0748BF00F8012D28BF20F8022D130005
:104B600030B414461546103928BF20E93C00FAD865
:104B7000490728BF20E90C0048BF40F8042D8900F0
:104B800028BF20F8022D48BF00F8012D30BC704727
:104B9000C91818BF00F8012DCB0728BF00F8012D58
:104BA00070470268531C03601170704710B5040011
:104BB000002C01D0012000E000207322DFF89813C0
:104BC000C0B2FFF7DFFE00220020002C18D02178B1
:104BD0002D2902D10122641C0AE021782B2907D15A
:104BE000641C05E00A23217803FB00103038641CA4
:104BF000217830390A29F5D3D2B2002A00D04042B8
:104C000010BD38B584B005000C00002D01D0012086
:104C100000E00020EB22DFF84013C0B2FFF7B2FE45
:104C20000020002D22D0002C0FD1302028701DE054
:104C30000A21B4FBF1F201FB12416A460300DBB228
:104C4000D154401C0A21B4FBF1F4002CF0D1010036
:104C5000C9B200290AD069460200D2B2114411F942
:104C6000011C303129706D1C401EF0E705B030BDCD
:104C70000000000010B50400002C01D0012000E06D
:104C800000204FF4D272DFF8D012C0B2FFF77AFEE4
:104C900000219FEDAD0B9FEDAC1BB7EE002B002C60
:104CA00043D020782D2802D10121641C11E0207806
:104CB0002B280ED1641C0CE0B2EE044BB0EE403B4E
:104CC0002078303800EE100AB8EEC00B03EE040B6B
:104CD000641C207830380A28EED320782E281DD185
:104CE000601C0EE0B2EE043BB0EE414B0278303A6D
:104CF00001EE102AB8EEC11B04EE031B22EE032BBB
:104D0000401C0278303A0A2A06D29FED914BB4EE4D
:104D1000442BF1EE10FAE5D481EE021B30EE010BCC
:104D2000C9B2002901D0B1EE400B10BDF8B52DED90
:104D3000028B96B00400B0EE408B0D00002C01D029
:104D4000012000E000204FF4F172DFF80C12C0B235
:104D5000FFF718FE002000202900002C71D0BDEEC6
:104D6000C80B10EE100A9FED781BB4EE418BF1EEEC
:104D700010FA09D52D222270641C00EE100AB8EE3C
:104D8000C00B38EE400B13E09FED6F1BB4EE418B70
:104D9000F1EE10FAF1D130202070601C2E2101704C
:104DA000401C302101704CE0B2EE042B20EE020BCF
:104DB0000A00511ED2B2002AF6D1BDEEC00B10EE91
:104DC000101A00220A2390FBF3F603FB160309AE28
:104DD0001700FFB246F82730521C0A2390FBF3F06D
:104DE0000028EFD11000C0B200281ED02000441CC3
:104DF00009AB1600F6B203EB860353F8043C002B14
:104E000007D409AB1600F6B203EB860353F8043C53
:104E100007E009AB1600F6B203EB860353F8043C37
:104E20005B4230330370521EDCE72800C0B200281A
:104E300007D000202E222270621C002914D13020BD
:104E4000107016B0BDEC028BF1BD0A2391FBF3F498
:104E500003FB14136C460600F6B244F82630401CDF
:104E60000A2391FBF3F16D1E2B00DBB2002BECD17A
:104E70000100C9B20029E4D011004A1C6B460400AD
:104E8000E4B203EB840353F8043C002B07D46B46D5
:104E90000400E4B203EB840353F8043C07E06B46E0
:104EA0000400E4B203EB840353F8043C5B42303368
:104EB0000B70401EDCE738B50400002C01D0012047
:104EC00000E0002040F23722DFF88C10C0B2FFF77C
:104ED00059FD200001F012FA0200002100200023F9
:104EE000002C0AD01800C0B200281DD020786138EC
:104EF000062803D2207857380DE022E02078413888
:104F0000062802D22078373805E0207830380A2881
:104F100009D2207830380D000100C9B211F00F011C
:104F200051EA051108E00CE02078302804D16078BF
:104F3000782801D1641C0123641C1000421E002843
:104F4000CED1080032BD00000000000000000000CB
:104F50000000000065CDCD41EC1B09100069C84080
:104F600010F001007047012212FA01F181607047D0
:104F7000012212FA01F14160704710B48900436CBC
:104F80000F248C40A34312F00F0212FA01F11943CF
:104F9000416410BC704780B5C9B200290ED0010031
:104FA000C9B2082291FBF2F302FB1311494AC0B2C5
:104FB000C010C0011044FFF7D6FF0DE00100C9B2D8
:104FC000082291FBF2F302FB1311424AC0B2C01057
:104FD000C0011044FFF7CCFF01BD80B50100C9B28C
:104FE000082291FBF2F302FB13113A4AC0B2C0103F
:104FF000C0011044FFF7B2FFC0B202BD10B5C9B284
:1050000000290BD1D2B2002A02D0022A02D003E03A
:105010000F220BE00B2209E00A2207E0D2B2042A99
:1050200001D10C2200E00E2212F007020100C9B2E9
:10503000082391FBF3F403FB1411264BC0B2C010FC
:10504000C0011844FFF799FF10BD2DE9F8418DB05C
:1050500004000E0015001F0034210022E8464046DF
:10506000FFF76CFDF6B2002E0ED1FFB2002F02D07A
:10507000022F03D005E00F2001900DE008200190E1
:105080000AE00820019007E0FFB2042F02D10F20B0
:10509000019001E00E2001902000C0B2C0280FD086
:1050A0002100C9B208206A4691FBF0F300FB1311FE
:1050B00008482300DBB2DB10DB01184400F079F96B
:1050C0002900C9B22000C0B2FFF765FF0EB0BDE8ED
:1050D000F08100000000314010B4012291F84C3002
:1050E000052B03D291F84D30052B01D31000A7E01A
:1050F000002800F0A480002900F0A180514A126825
:105100004B7963F392428B7913F0030363F31142FB
:105110000B7A13F0070363F31A62CB7963F39E7281
:105120000B7D63F3000291F8243063F341020260C7
:105130000A7910F130031C6862F307041C604A7995
:10514000012A0BD18A79002A02D10022826007E06D
:105150008A79012A04D10A68826001E00122826012
:10516000CA6802610A694261CA6982610A6AC261E7
:105170000A680262344A12680B7E03F0FF03120AC7
:1051800012021A4391F8303003F0FF0363F3174221
:1051900091F8403003F0FF0363F31F6291F8483049
:1051A00003F0FF0363F30F224264284A126891F868
:1051B000383003F0FF03120A12021A4391F8283024
:1051C00003F0FF0363F30F228264214A12688B7D90
:1051D00013F00303920892001A4391F8253013F05C
:1051E000030363F38B2291F82C3013F0030363F372
:1051F000051291F8343013F0030363F3092291F898
:105200003C3013F0030363F3871291F8443013F03A
:10521000030363F38302C2640E4A126891F84C30B0
:1052200013F00703D208D2001A4391F84D3013F05F
:10523000070363F306124265497D8167002210006F
:1052400010BC704794250910982509109C25091059
:10525000A0250910A4250910016851F00041016042
:105260007047016821F0004101607047816070471C
:10527000806870477830016851F001010160704723
:1052800010F170010A6852F001020A60006F704765
:105290004030016851F010010160704730B4614B3B
:1052A0001818C009604C14EB001404290DD22368AF
:1052B0001F25C8008540AB43D2B212F01F02C900BF
:1052C00012FA01F1194321600CE0091F63681F25E0
:1052D000C8008540AB43D2B212F01F02C9008A4019
:1052E0001A43626030BC7047002A04D1012212FACE
:1052F00001F1416003E0012212FA01F1816070477F
:1053000010B48900436C0F248C40A34312F00F02A9
:1053100012FA01F11943416410BC704710B4836C58
:1053200001248C40A34312F0010212FA01F1194347
:10533000816410BC704710B4C36C01248C40A3433B
:1053400012F0010212FA01F11943C16410BC704756
:1053500010B449001031C36C03248C40A34312F0F5
:10536000030212FA01F11943C16410BC704742698B
:10537000012212FA01F141614069704710B483695A
:1053800001248C40A34312F0010212FA01F11943E7
:10539000816110BC704710B44900036C03248C4039
:1053A000A34312F0030212FA01F11943016410BC85
:1053B0007047F8B505000E0014000027002D2ED010
:1053C000002C2CD0226831002800FFF78DFF227AB4
:1053D00031002800FFF762FF626931002800FFF703
:1053E0009DFFA26931002800FFF7A5FFE2693100A7
:1053F0002800FFF7ADFF626831002800FFF780FF4B
:10540000E26831002800FFF7C6FF31002800FFF7EF
:10541000AEFF226931002800FFF7B0FF00E0034F24
:105420003800F2BD0000CFBF0000304001005A003C
:105430002DE9F041DFF8D0311C00DFF8D051D5F86C
:1054400000C0DFF8CC512D68DFF8C8613668DFF89E
:10545000C8713F685FF0000E5FF0000E002800F09A
:10546000D080002900F0CD804C68002C01D18C68E0
:1054700005E04C68022C01D1002400E00224D1F8A0
:1054800010E0D1F81480C64502D3D1F810E001E055
:10549000D1F814E0BEF1090F08D23CF4404C91F869
:1054A0002130002B12D05CF4807C11E0BEF1110F92
:1054B00003D2012363F38F3CF1E7BEF1210F03D246
:1054C000022363F38F3CEAE718009BE03CF4807C06
:1054D000CB685B1E13F00F035FEA1C1C5FEA0C1C19
:1054E00053EA0C0C012363F3196CC0F800C00B7F66
:1054F000002B01D0002300E0012363F300054B687B
:105500001B0963F34105CB7E63F304154B7E63F304
:1055100045150B68012B01D1012300E0002363F343
:10552000DF7523005B0863F3820564F3C3054B7FDB
:1055300063F308258B7F63F34925CB7F63F38A25CB
:1055400091F8203063F3CB250B7913F0030363F359
:10555000196505620B7E63F308278B7E63F3492789
:105560000B695B1E13F01F037F097F011F43C0F807
:10557000007391F8243003F0FF0310F5417425689F
:105580002D0A2D022B4323600B7E63F308264B6903
:105590005B1E13F01F03760976011E43C0F80062FC
:1055A00091F82C3003F0FF0310F5017425682D0AE3
:1055B0002D022B4323600B6BC0F8883F8B6AC0F829
:1055C000C83F91F8383010F57064256863F34925B9
:1055D000256091F8391010F574631C6861F3CB24D1
:1055E0001C600021C0F8C81E002A09D000201060ED
:1055F000002090610020D0600020D0610748106238
:1056000000242000BDE8F0810140AA004C250910CB
:10561000502509105425091058250910EFCDAB006D
:10562000010009B2002909D4012210F01F018A40AB
:10563000DFF8BC1A00B2400941F820207047022868
:1056400001D3012010E00B00DBB2042B01DB0120B1
:105650000AE0DFF8A03A03EB8000C9B2405C824266
:1056600001D3012000E000207047F8B504000F00CE
:1056700015001E00022C01D301202AE02A00390067
:10568000C9B22000FFF7DBFF012801D1012020E093
:1056900006983900C9B202291ED1B6F5803F19D249
:1056A000202817D24FF4C052DFF84C1A63030B4482
:1056B00003EB850313441F6866F317271F60640319
:1056C000214401EB850111440A6860F3C7020A60B6
:1056D0000020F2BD0120FCE7FFB2032F1FD1B6F17D
:1056E000807F1AD2202818D24FF4E052DFF8081A2F
:1056F00063030B4403EB850313441F6807F0FF07A4
:1057000057EA06271F606403214401EB8501114419
:105710000A6860F3C7020A60DAE70120D9E70120CE
:10572000D7E700B20012C0B27047F8B505000E000E
:105730001700280000B2FFF7F4FF04002000C0B2F9
:10574000022801D3012024E03A003100C9B2200030
:10575000C0B2FFF774FF012801D1012019E0DFF882
:1057600098192000C0B2400308442A00D2B200EBCE
:105770008200D0F8000CF6B266F3092067F3070048
:10578000E4B264032144EDB201EB8501C1F8000CE1
:105790000020F2BD70B504000D001600022C01D3EC
:1057A00001201DE032002900C9B22000FFF747FFA9
:1057B000012801D1012013E0DFF83C1960030858EB
:1057C00050F0004050F0407050F47F00EDB265F3AF
:1057D000092066F30700620388506403085900201B
:1057E00070BDD0F840037047D0F80803C005C00D65
:1057F000704710F541710A6852F480320A6010F562
:1058000041710A6832F480320A60D0F804037047AC
:10581000C0F840127047D0F80802C005C00D7047AC
:10582000D0F80802C0F3C030704738B50500280032
:10583000FFF7F1FF04002800FFF7F2FF0419002C26
:1058400001D1012000E00020C0B232BDC0F8C81F65
:105850007047D0F8C80F7047C0F8C01FD0F8C00F0D
:105860007047C0F8881F7047D0F8880F7047C0F89D
:10587000801FD0F8800F7047016851F0004101602F
:1058800070472DE9F84F0400012500200020DFF8C3
:105890002C0A2100C9B250F82160D6F80403000692
:1058A00001D1042700E001273000FFF7D2FF3900C3
:1058B000C9B2084253D03800C0B2012835D13000F7
:1058C000FFF792FF80465FF0000901E019F101093E
:1058D0004046C0B2814522DADFF8E4A92000C0B218
:1058E0001AF80000411C2200D2B20AF80210DFF8B8
:1058F000D4192200D2B2120101EB020BC0B2009007
:105900003000FFF76EFF00990BF801002000C0B2D5
:105910001AF800001028D9DB3000FFF76AFF0120D9
:10592000DFF8A419E4B2085513E03000FFF759FF7F
:10593000DFF890192200D2B2120188540120DFF85A
:1059400080192200D2B288540120DFF87C19E4B219
:105950000855FFB239003000FFF77EFF0AE0300043
:10596000FFF782FF800505D54FF400713000FFF787
:105970007EFF00252800C0B2BDE8F28F38B50400D4
:105980001500C9B200290ED0102919D0202924D021
:1059900030292FD031293AD0402945D0502950D034
:1059A00060295BD067E0DFF82409A0600120207344
:1059B000112060734FF48C70E0811220208260E02F
:1059C000DFF80C09A060012020731120607340F201
:1059D0001D10E0816B20208253E0DFF8F808A06002
:1059E00001202073112060734FF48E70E0816A20D3
:1059F000208246E0DFF8E008A0600220207311203A
:105A0000607340F21B10E0816920208239E0DFF8EA
:105A1000CC08A060012020731120607340F21B109D
:105A2000E081692020822CE0DFF8B408A06001202A
:105A30002073132060734FF48D70E0816820208202
:105A40001FE0DFF8A008A060012020731120607320
:105A500040F21F10E0816D20208212E0DFF88808FC
:105A6000A06001202073112060734FF48F70E081DB
:105A70006C20208205E0DE22DFF870180020FEF79F
:105A800081FFEDB2002D0ED0102D19D0202D24D085
:105A9000302D2FD0312D3AD0402D45D0502D50D023
:105AA000602D5BD067E0DFF82408206000202071C3
:105AB000112060714FF48C70E0811220208261E02F
:105AC000DFF80C082060002020711120607140F286
:105AD0001D10E0816B20208254E0DFF8F807206081
